:020000040800F2
:1000000038800020C1010008A7530008833A000887
:10001000A3530008490C00081DCC00080000000094
:10002000000000000000000000000000ED7000086B
:10003000D11100080000000099570008C57D000894
:10004000DB010008DB010008DB0100086D6000082F
:10005000DB010008DB010008DB010008DB01000810
:10006000DB01000881350008DB010008DB01000826
:10007000DB010008DB010008DB010008DB010008F0
:10008000DB010008DB010008DB010008DB010008E0
:10009000DB010008DB010008DB010008DB010008D0
:1000A000DB010008DB010008DB010008DB010008C0
:1000B00019800008DB010008DB010008DB010008F3
:1000C000DB010008DB010008DB010008DB010008A0
:1000D000DB010008DB010008DB010008E1A10008EA
:1000E000DB010008DB010008DB010008DB01000880
:1000F000DB010008DB010008DB010008DB01000870
:10010000DB010008DB010008DB010008DB0100085F
:10011000DB010008DB0100082D800008DB0100087E
:10012000DB010008DB010008DB010008DB0100083F
:10013000DB010008DB010008DB010008DB0100082F
:10014000DB010008DB010008DB010008DB0100081F
:10015000DB010008DB010008DB010008DB0100080F
:10016000DB010008DB010008DB010008DB010008FF
:10017000DB01000835540008DB010008DB01000842
:10018000DB010008DB010008DB010008DB010008DF
:10019000DB010008DB010008DB010008DB010008CF
:1001A000DB010008DB010008DB010008DFF80CD0F0
:1001B00000F098FB00480047310D0108388000200E
:1001C0000648804706480047FEE7FEE7FEE7FEE7F1
:1001D000FEE7FEE7FEE7FEE7FEE7FEE7B17F000889
:1001E000AD01000840EA01039B0703D009E008C9FC
:1001F000121F08C0042AFAD203E011F8013B00F8EC
:10020000013B521EF9D27047D2B201E000F8012B37
:10021000491EFBD270470022F6E710B513460A4686
:1002200004461946FFF7F0FF204610BD421E12F8A3
:10023000013F002BFBD111F8013B02F8013B002BE1
:10024000F9D1704710B5002200E0521C835C8C5C31
:10025000A34201D1002BF8D1D8B2E1B2401A10BDAF
:100260002DE9FE4F81EA030404F0004421F000412F
:1002700000944FF0000B23F0004350EA01045ED0DD
:1002800052EA03045BD0C3F30A54C1F30A552C4469
:10029000A4F2F3340194A0FB0254C1F3130141F41E
:1002A0008011C3F3130343F4801301FB024400FBEA
:1002B000034E840A970A44EA815447EA8357A4FB11
:1002C000076802958D0A05FB07854FEA932C04FB0E
:1002D0000C542705029D4FEA065847EA1637B5EB3E
:1002E00008056EEB070C870E920E47EA811742EA6B
:1002F0008312A7FB0201B6EB0B0164EB00042B0D8C
:1003000043EA0C335E1844EB1C50DA465146E7FBD7
:100310000201C5F313044FEA0B3343EA14534FEAC7
:100320000432019C43EA0603A4F10C040294009CED
:10033000CDE900B400F078F903B0BDE8F08F0020FB
:100340000146F9E72DE9F04D81EA030404F0004B82
:1003500021F0004514464FF0000A23F0004150EA16
:10036000050220D054EA01021DD0C5F30A57024607
:10037000C5F31303C1F31300C1F30A5640F480150B
:1003800043F48013A7EB0608101BD64608F2FD388D
:1003900073EB050002D308F1010801E092185B41FC
:1003A000B8F1000F03DA00200146BDE8F08D00200F
:1003B0004FF48011064684460EE0171B73EB0507C9
:1003C00005D3121B63EB050306434CEA010C4908F5
:1003D0004FEA300092185B4150EA0107EDD152EA32
:1003E000030012D082EA040083EA0501084305D025
:1003F000101BAB4106D20122002306E000224FF081
:10040000004302E06FF0010253101AEB06004CEBC0
:10041000085110EB0A0041EB0B01BDE8F04D00F074
:10042000F4B80EB5C10F80EAE0700844CA07002195
:1004300040F233438DE80E000A460B4600F0F4F814
:1004400003B000BD0EB540F2334102910021CDE969
:1004500000110A460B4600F0E7F803B000BDC1F3F7
:100460000A5210B5C1F3130140F2FF3341F4801179
:100470009A4201DA002010BD40F233439A42A2F2C0
:10048000334203DC524200F079F810BD904010BDB9
:1004900000F0004230F000400AD0C10D01F560715B
:1004A000C0F3160042EA0151C208400711437047E9
:1004B000002001467047000030B5041E71F10004B1
:1004C00004DB4FF00044404264EB0101141E73F161
:1004D000000405DB1C464FF00043524263EB04036B
:1004E0008B4208BF824230BD30B5041E71F100045A
:1004F00004DB4FF00044404264EB0101141E73F131
:10050000000405DB1C464FF00043524263EB04033A
:10051000994208BF904230BD01F0004330B421F051
:10052000004150EA010206D00A0DA2F56072C1F343
:100530001301002A02DC30BC00207047440F44EA5B
:10054000C104C100E01830BC00EBC25000F026B876
:1005500030B50B46014600202022012409E021FA93
:1005600002F59D4205D303FA02F5491B04FA02F590
:100570002844151EA2F10102F1DC30BD202A04DB63
:10058000203A21FA02F00021704721FA02F3D0400C
:10059000C2F1200291400843194670470029A8BFC4
:1005A0007047401C490008BF20F00100704710B49C
:1005B000B0FA80FC00FA0CF050EA010404BF10BC51
:1005C000704749B1CCF1200421FA04F411FA0CF17E
:1005D00018BF012121430843A3EB0C01CB1D4FEAB7
:1005E00000614FEA102042BF002010BC704700EBB2
:1005F000C35010440029A4BF10BC7047401C4900E0
:1006000008BF20F0010010BC704710B5141E73F134
:10061000000408DA401C41F1000192185B411A43C2
:1006200001D120F0010010BD2DE9F04D92469B460E
:1006300011B1B1FA81F202E0B0FA80F220329046B4
:1006400000F062F904460F4640EA0A0041EA0B0155
:1006500053465A46084313D0114653EA010019D0B5
:10066000C8F140025046FFF789FF05460E46504646
:100670005946424600F048F9084305D0012004E0FD
:1006800020463946BDE8F08D0020054346EAE07675
:100690002C4337430A986305E40AA0EB08000022C4
:1006A000FD0A44EA47540A3002D500200146E9E732
:1006B000010510196941DDE9084500196941BDE8E6
:1006C000F04DA2E72DE9FE4F804681EA0300C00FFE
:1006D0000C46009021F0004123F00045B8EB0200E9
:1006E000A94105D24046214690461C460B4602468B
:1006F00023F00040104347D0270DC7F30A00C3F38F
:100700000A510290401A019040286BDAC3F313009B
:1007100040F4801B0098924620B10023D2EB030ADC
:1007200063EB0B0B01985946C0F14002504600F0B4
:10073000EBF806460D4650465946019A00F0F3F88C
:1007400010EB08006141002487EA115284EAE77344
:100750001A4340D0009A62B3019A012A4FEA075225
:1007600015DC001B61EB02014FF0004202EA075268
:10077000CDE90042001C41F5801132462B46FFF7BF
:1007800053FF03B0BDE8F08F40462146F9E7001B58
:1007900061EB0201001C41F5801300185B41201839
:1007A000A2F5001747EB030140EAD570B6196D4179
:1007B00011E06D084FEA360645EAC0754FEA075268
:1007C000001B61EB0201001C41F5801149084FEA52
:1007D00030000019514132462B4603B0BDE8F04FBE
:1007E000FFF713BF0098012240000023D0EB020264
:1007F00063EBE073009821464FEAE074B8EB000029
:1008000061EB0401E9E783F000435BE781F000411D
:1008100058E770B521F0004303430CD0C1F30A55EB
:100820000024D5EB040564EB0403D617AD1AB341DD
:1008300002DB0020014670BD201841EB025170BD63
:100840002DE9F04D00231A461B1A8A4103DB0020D4
:100850000146BDE8F08DC1F30A52C1F3130141F422
:1008600080154FF0000BD10702D100186D41521EC8
:100870000027044640F2FF11384601EB620A3E466B
:100880008046024600204FF48011FFF777FEC21920
:100890007141BB1846EB0100B4EB030C75EB000C87
:1008A00004D3E41A65EB000517460E46241908F137
:1008B00001006D4180463428E3DDF91946EB06005E
:1008C000091BA84103D24FF0FF32134601E000227A
:1008D00013461BEB070046EB0A51BDE8F04DFFF74E
:1008E00094BE0000064C074D06E0E06840F00103AE
:1008F00094E8070098471034AC42F6D3FFF75AFC4F
:10090000F82A0508182B0508202A04DB203A00FAEB
:1009100002F1002070479140C2F1200320FA03F356
:10092000194390407047202A06DBCB17203A41FA42
:1009300002F043EAE07306E041FA02F3D040C2F16C
:100940002002914008431946704770B58C1810F882
:10095000015B15F0070301D110F8013B2A1106D104
:1009600010F8012B03E010F8016B01F8016B5B1E1E
:10097000F9D12B0705D40023521E0DD401F8013BF9
:10098000FAE710F8013BCB1A921C03E013F8015B65
:1009900001F8015B521EF9D5A142D8D3002070BDE9
:1009A00021B1826842F00102826003E0826822F095
:1009B00001028260704700000021084A1168084A5D
:1009C0001140D0E900231A4383681A43C3681A43CD
:1009D0001143044AC2F80413704700000423014085
:1009E000E030FCFF0020014021B1826842F48072B7
:1009F000826003E0826822F480728260704721B1D5
:100A0000826842F40072826003E0826822F400721D
:100A10008260704730B50246002000235068104CB9
:100A200020400D790C6844EA05242043506090680A
:100A30000C4C2040D1E903542C438D682C434D7954
:100A400044EA450420439060D06A20F470000C7D95
:100A5000641EE4B2234340EA0350D06230BD00007C
:100A6000FFFEFFFCFDF7FFC0F0B504460D46002079
:100A70000021092D11DDE068A5F10A0606EB460705
:100A8000072606FA07F18843A5F10A0606EB460693
:100A900003FA06F10843E0600CE0206905EB450726
:100AA000072606FA07F1884305EB450603FA06F127
:100AB00008432061072A0FDA606B561E06EB860793
:100AC0001F2606FA07F18843561E06EB860605FA2E
:100AD00006F10843606322E00D2A0FDA206BD61F6F
:100AE00006EB86071F2606FA07F18843D61F06EB9A
:100AF000860605FA06F10843206310E0E06AA2F1D9
:100B00000D0606EB86071F2606FA07F18843A2F1B9
:100B10000D0606EB860605FA06F10843E062F0BD15
:100B2000816841F080418160704700001CB501215F
:100B3000084604F021FF032000908DF804000020F7
:100B40008DF807006946024802F0EEFE1CBD000069
:100B50000000024010B54021014802F059FF10BDCD
:100B6000000402407047000070B505460C46084876
:100B70000560204600F00EF800BF05480068002818
:100B8000FBD100214FF0804007F0BDFA70BD00009E
:100B9000A80100203EB5044600214FF0804007F038
:100BA000B2FA00220121880707F0CAFA022C02D10A
:100BB0000B20019004E0012C02D142F6DF6001908D
:100BC0000520ADF800000020ADF80800ADF80200E7
:100BD00069464FF0804007F087FB0121880707F046
:100BE0008FFA0121880707F07CFA0122114690074D
:100BF00007F0A6FA0121880707F085FA3EBD704785
:100C00007047000010B504460E4890F8420010B935
:100C1000FFF7F5FF15E054B90A4890F842000128A3
:100C200002D1FFF7EDFF0CE0FFF7E9FF09E005480F
:100C300090F84200022802D1FFF7E2FF01E0FFF73F
:100C4000DEFF10BD6807002000BFFEE700B587B0DB
:100C50000121812004F090FE0121080304F0CCFE64
:100C600005221146334802F0A7FE0522062131482D
:100C700002F0A2FE052207212E4802F09DFE202050
:100C8000059002208DF819008DF8180000208DF8CD
:100C90001A008DF81B0005A9264802F045FE4020E9
:100CA000059005A9234802F03FFE8020059005A984
:100CB000204802F039FE1020059001208DF8180020
:100CC00000208DF81A0005A91A4802F02DFE2020F8
:100CD000059000208DF8180001208DF81B0005A953
:100CE000154802F021FE0020ADF800004FF482709C
:100CF000ADF802000020ADF804000220ADF80600B7
:100D00000120ADF808004002ADF80A003820ADF827
:100D10000C000020ADF80E000720ADF81000694669
:100D2000064806F065F90121044805F03FFF07B0C9
:100D300000BD000000000240001C024000300140E5
:100D40001CB501214FF4A47004F016FE2020009081
:100D500002208DF8050001208DF8040000208DF898
:100D6000060001208DF8070069460C4802F0DCFD02
:100D70004FF4804000906946094802F0D5FD0020FC
:100D80008DF804008DF8060001208DF8070004207E
:100D900000906946034802F0C7FD1CBD000C0240EC
:100DA00000180240002002401CB50121042004F07C
:100DB000E3FD02208DF8050001208DF804000020DD
:100DC0008DF8060001208DF807008020009069460C
:100DD000014802F0A9FD1CBD000802402DE9F041C8
:100DE00000240027284890F84060002005F07AFB96
:100DF0002146002001F006FB40E0012006F078F9D2
:100E000040F6B8300EF0D8F910F0E4F8002006F003
:100E10006FF91CB900200CF087FD02E001200CF0F6
:100E200083FD40F6B8300EF0C7F910F057F91748B7
:100E300090ED000A164800EB840080ED000A022CB9
:100E400009DA144890ED000A1148103000EB8400D4
:100E500080ED000A2546204605F044FB214600208F
:100E600001F0D0FA032C07DB06200B490870064876
:100E700080F8406006F076FF601CC4B20648007837
:100E80001128BAD0BDE8F081680700205800002082
:100E9000680800205C00002022000020704700004D
:100EA00030B587B00446207855490870607848709E
:100EB000A0788870E11C684606F066FF6D469DF8D4
:100EC00000004F49087101994D4881600299C16045
:100ED000039901610499416105998161A969C16121
:100EE000607A474981F82000607A81F8200004F197
:100EF0000A01684606F048FF9DF80000404981F865
:100F0000240001993E4881620299C16203990163FC
:100F10000499416305998163A969C163207C3849BB
:100F200081F84000607C81F8420004F112016846BB
:100F300006F02AFF9DF80000314981F8440001992C
:100F40002F4881640299C164039901650499416540
:100F500005998165A969C16504F11801684606F023
:100F600013FF9DF80000264981F86000019924488C
:100F70004166029981660399C166049901670599E2
:100F80004167A969816704F11E01684606F0FCFE0D
:100F90009DF800001A4981F87C0001991848C0F8B2
:100FA00080100299C0F884100399C0F88810049941
:100FB000C0F88C100599C0F89010A969C0F8941079
:100FC00004F12401684606F0DFFE9DF800000C499C
:100FD00081F8980001990A48C0F89C100299C0F85D
:100FE000A0100399C0F8A4100499C0F8A81005999E
:100FF000C0F8AC10A969C0F8B01007B030BD00004F
:101000006807002010B50121C80504F0C5FC0021C7
:101010004FF4000004F0C0FC10BD000001460020A9
:10102000034A52680A400AB1012000E000207047DC
:1010300000B0024070B50021002200230024344D8E
:101040002D68344E3540324E356035462D68066881
:1010500035432F4E356035466D6B25F007057563BA
:1010600035466D6B46683543294E7563456835B91D
:10107000C5682902058A2A04057D2B0621E04568FA
:10108000012D05D1C5682902058A2A04002318E02C
:101090004568022D05D1C56869010569EA0200238A
:1010A0000FE04568032D06D1C56869010569AA02EC
:1010B0004569EB0305E0C568290105692A02456910
:1010C0002B0341EA0205866835431D43104EB66B7B
:1010D00035430F4EB5638569F56335462D6C6FF367
:1010E0000D05356435462D6CC6693543084E3564AB
:1010F000858C2C0435466D6C05F04045756435468D
:101100006D6C066A26433543014E756470BD000060
:1011100000B00240FCE0FCFF0348006840F0010022
:10112000014908607047000000B0024021B1026828
:1011300042F00102026003E0026822F00102026054
:101140007047000010B500220268134B1A40CC68AB
:101150000B6823434C6923438C692343CC692343A5
:101160000C6A23434C6A23438C6A23434C6B23430E
:101170008C6B23431A430260426922F00702D1E9D3
:101180000B3423431A4342610B6943604B6883600D
:101190008B68C36010BD00003F801CF01CB5094B7C
:1011A0001B788DF806300091074B9B5C8DF804305E
:1011B000064B9B5C8DF80530DDE90034C0E9003456
:1011C0001CBD00001E000020482201085322010817
:1011D000704730B58FB0054602F05EF9012229460E
:1011E000684600F08BFE6C469DF800008DF82000EC
:1011F0000198099002980A9003980B9004980C901B
:1012000005980D9006980E9008A800F026F8079013
:1012100007980FB030BD30B58FB0054602F054F9D5
:1012200000222946684600F069FE6C469DF80000E1
:101230008DF820000198099002980A9003980B906D
:1012400004980C9005980D9006980E9008A800F050
:1012500004F8079007980FB030BD0146486842F285
:101260001072904204D948680A22B0FBF2F048603C
:101270004868704708B50020009031E01B489DF891
:10128000001050F831001A499DF8002001EBC2010E
:10129000496888420CD815489DF8001050F8310074
:1012A00013499DF8002001EBC2014968884212D21F
:1012B0009DF80000042807DA4FF47A710B489DF876
:1012C000002040F8321006E04EF6602107489DF8F5
:1012D000002040F832109DF80000401CC0B2009081
:1012E0009DF800000628C9DB08BD00001C0800208E
:1012F0008C0000207CB505466FF07F40FB490860FC
:10130000012D01D1012000E000200090009820B1C3
:101310004FF47F00F549486002E02820F349486017
:10132000F34890F8E80008B1F24C00E0F24C2223B8
:10133000A0222821902003F0ADFAED480078C0EB00
:10134000C000021900232821A0200CF0FBFA022D76
:1013500001D1012000E000200090009820B14FF45E
:101360007F00E249486002E02820E0494860E04808
:1013700090F8E80008B1E14C00E0E14C2223A02203
:101380004A21902003F086FAD9484078C0EBC0008B
:10139000021900234A21A0200CF0D4FA032D01D118
:1013A000012000E000200090009820B14FF47F0061
:1013B000CE49486002E02820CC494860CC4890F8EB
:1013C000E80008B1CF4C00E0CF4C2223A0228E21B0
:1013D000902003F05FFAC6488078C0EBC000021985
:1013E00000238E21A0200CF0ADFA042D01D10120A4
:1013F00000E000200090009820B14FF47F00BB492E
:10140000486002E02820B9494860B94AD268D1B2A0
:10141000B74A90680023052202F036FB2223A0225F
:10142000B021902003F036FA0023B84AB021902072
:101430000CF088FAAE480069B54901EB8002002340
:10144000B0214FF480700CF07DFA052D01D1012000
:1014500000E000200090009820B14FF47F00A349E5
:10146000486002E02820A1494860A14890F8E800BF
:1014700008B1A44C00E0A44C2223A022F421902027
:1014800003F008FA9A4890F82000C0EBC000021957
:101490000023F62190200CF055FA062D01D10120F1
:1014A00000E000200090009820B14FF47F008F49A9
:1014B000486002E028208D4948608D4AD26AD1B246
:1014C0008B4A906A0023062202F0DEFA2223A02231
:1014D0004FF48B71902003F0DDF900238B4A4FF419
:1014E0008B7190200CF02EFA00238AA24FF48B719E
:1014F000881F0CF027FA072D01D1012000E0002001
:101500000090009820B14FF47F007849486002E0D5
:10151000282076494860764890F8E80008B17E4E69
:1015200000E07E4E2223A02228214FF4F07003F029
:10153000B1F96F4890F8410038B9002332462821AC
:101540004FF4F8700CF0FEF90EE0694890F8400096
:10155000401C00EB400101EBC00082190023282150
:101560004FF4F8700CF0EEF9082D01D1012000E0E5
:1015700000200090009820B14FF47F005B49486044
:1015800002E0282059494860594890F8E80008B11D
:10159000634C00E0634C2223A0224A214FF4F070F8
:1015A00003F078F9524890F84200C0EBC0000219ED
:1015B00000234A214FF4F8700CF0C4F9092D01D131
:1015C000012000E000200090009820B14FF47F003F
:1015D0004649486002E0282044494860444AD26CA9
:1015E000D1B2434A906C0023052202F04DFA222327
:1015F000A0228C214FF4F07003F04CF90023434AF1
:101600008E214FF4F0700CF09DF93948006D40497F
:1016100001EB8002002390214FF414700CF092F93A
:101620000A2D01D1012000E000200090009820B197
:101630004FF47F002D49486002E028202B49486084
:101640002B4A926ED1B22A4A506E0023052202F034
:101650001BFA2223A022B0214FF4F07003F01AF9F4
:1016600000232A4AB0214FF4F0700CF06BF92048A7
:10167000C06E274901EB80020023B0214FF41470A3
:101680000CF060F90B2D01D1012000E0002000904A
:10169000009820B14FF47F001449486002E02820F0
:1016A00012494860124AD2F88420D1B2104AD2F8C6
:1016B00080000023062202F0E7F92223A022F42171
:1016C0004FF4F07003F0E6F80023104AF4214FF4D1
:1016D000F0700CF037F900230EA2F4214FF41870CB
:1016E0000CF030F90C2D1FD101201EE00C01002060
:1016F000680700200F1E0108011E0108391E01089D
:101700001D1E0108631E0108551E010884000020EB
:10171000591F010856000000011F0108A91E0108F9
:10172000861E0108711E010800200090009820B15B
:101730004FF47F00F049486002E02820EE494860FD
:10174000EE4AD2F8A020D1B2EC4AD2F89C00002395
:10175000062202F099F92223A0224FF48B714FF454
:10176000F07003F097F80023E54A4FF48B714FF4C3
:10177000F0700CF0E7F80023AFF268024FF48B71C1
:101780004FF418700CF0DEF800F07EFB0020DA4910
:1017900008600D2D72D2DFE805F0070B2D4F729413
:1017A000B6D8FDFCFBFAF900002000F0C9F9A1E170
:1017B000D448D1494860D14890F8E80008B1D24CEB
:1017C00000E0D24C0020019010E00199C1EBC10172
:1017D0000A192023019903EBC11188B200234FF4A9
:1017E000D8710CF0AFF80198401C019001980228C4
:1017F000EBD37FE1C348C0494860C04890F8E80097
:1018000008B1C34C00E0C34C0020019010E00199E6
:10181000C1EBC1010A192023019903EBC11188B260
:1018200000234FF4D8710CF08DF80198401C019002
:1018300001980428EBD35DE1B248AF494860AF4856
:1018400090F8E80008B1B44C00E0B44C00200190DE
:1018500010E00199C1EBC1010A192023019903EBA2
:10186000C11188B200234FF4D8710CF06BF80198C5
:10187000401C019001980228EBD33BE139E1A148DB
:101880009D4948609D4890F8E80008B1A44C00E0EC
:10189000A44C0020019010E00199C1EBC1010A198C
:1018A0002023019903EBC11188B200234FF4D871B2
:1018B0000CF048F80198401C019001980028EBD0EA
:1018C00018E190488C4948608C4890F8E80008B1CD
:1018D000914C00E0914C0020019010E00199C1EB87
:1018E000C1010A192023019903EBC11188B2002319
:1018F0004FF4D8710CF026F80198401C0190019823
:101900000228EBD3F6E07F487B4948607B4890F89B
:10191000E80008B1824C00E0824C0020019010E009
:101920000199C1EBC1010A192023019903EBC111EF
:1019300088B200234FF4D8710CF004F80198401CD1
:10194000019001980028EBD0D4E06E486A494860C5
:101950006A4890F8E80008B1734E00E0724E00202B
:10196000019012E0019901EB410303EBC1018A19D7
:101970001023019903EBC11188B200234FF4D871F1
:101980000BF0E0FF0198401C019004E08FE06CE058
:1019900049E026E003E001980528E3D3AAE059488E
:1019A00055494860554890F8E80008B15F4C00E0A0
:1019B0005F4C0020019010E00199C1EBC1010A19B0
:1019C0001023019903EBC11188B200234FF4D871A1
:1019D0000BF0B8FF0198401C019001980328EBD34D
:1019E00088E0484844494860444890F8E80008B115
:1019F0004B4C00E04B4C0020019010E00199C1EBF2
:101A0000C1010A192023019903EBC11188B20023F7
:101A10004FF4D8710BF096FF0198401C019001988B
:101A20000028EBD066E0374833494860334890F8E7
:101A3000E80008B13A4C00E03A4C0020019010E078
:101A40000199C1EBC1010A192023019903EBC111CE
:101A500088B200234FF4D8710BF074FF0198401C3A
:101A6000019001980028EBD044E0264822494860C4
:101A7000224890F8E80008B1294C00E0294C0020E9
:101A8000019010E00199C1EBC1010A1920230199CD
:101A900003EBC11188B200234FF4D8710BF052FF51
:101AA0000198401C019001980028EBD022E01548D5
:101AB00011494860114890F8E80008B1184C00E05E
:101AC000184C0020019010E00199C1EBC1010A19E6
:101AD0002023019903EBC11188B200234FF4D87180
:101AE0000BF030FF0198401C019001980028EBD0CA
:101AF00000E000BF00BF7CBD0C0100206807002093
:101B000084000020303030000F1E0108011E010843
:101B1000391E01081D1E0108631E0108551E01081B
:101B2000A21E01089B1E0108651F0108861E0108F0
:101B3000711E010810B5002000F002F810BD000071
:101B400010B5044600F0A0F9002C7CD100206949B2
:101B5000086069484860694890F8E80000284BD060
:101B6000002367A24FF4D07120200BF0EBFE00237E
:101B700065A24FF4E07120200BF0E4FE002360A288
:101B80004FF4D071A0200BF0DDFE002360A24FF4D3
:101B9000E071A0200BF0D6FE00235FA24FF4D071BD
:101BA0004FF490700BF0CEFE002359A24FF4E07179
:101BB0004FF490700BF0C6FE002359A24FF4D07181
:101BC00008460BF0BFFE002356A24FF4E0714FF41D
:101BD000D0700BF0B7FE002354A24FF4D0714FF435
:101BE00008700BF0AFFE002352A24FF4E0714FF4E7
:101BF00008700BF0A7FE7CE0002350A24FF4D071D8
:101C000018200BF09FFE00234EA24FF4E071182025
:101C10000BF098FE002349A24FF4D07198200BF0EE
:101C200091FE002349A24FF4E07198200BF08AFE48
:101C3000002348A24FF4D0714FF48C700BF082FE59
:101C4000002342A200E026E04FF4E0714FF48C70D4
:101C50000BF078FE00233FA24FF4D0714FF4CC700C
:101C60000BF070FE00233DA24FF4E0714FF4CC70F6
:101C70000BF068FE00233BA24FF4D0714FF40670C6
:101C80000BF060FE002339A24FF4E0714FF40670B0
:101C90000BF058FE2DE0012C2BD16FF07F40154941
:101CA000086015484860002332A2E72154200BF059
:101CB00049FE002331A2FB2154200BF043FE0023F8
:101CC00030A2E721A4200BF03DFE00232FA2FB2130
:101CD000A4200BF037FE00232EA2E7214FF4CA7098
:101CE0000BF030FE00232DA2FB214FF4CA700BF045
:101CF00029FE10BD0C0100203030300068070020A4
:101D00004D4541530000000044495350000000007D
:101D10005345545550000000205359530000000013
:101D200053595300494E464F00000000434C454173
:101D30005200000056414C5545000000B2E220C15F
:101D4000BF000000CFD420CABE000000C9E820D6E2
:101D5000C3000000CFB520CDB3000000D0C520CF18
:101D6000A2000000B6CC20C2B7000000C7E520C129
:101D7000E3000000CEC4BCFE00000000B9DCC0EDF2
:101D800000000000B1A3B4E600000000CAFDBEDD03
:101D900000000000B8FCB6E00000000020322F3246
:101DA000000000000FB410B59DF8080090B19DF838
:101DB0000800042807DD9DF8101000230622039870
:101DC00001F062FE06E09DF8181000230722059836
:101DD00001F05AFE9DF80800C0EB0010400000F131
:101DE00028010123034A4FF4A0700BF0ABFD10BC97
:101DF0005DF814FB8400002001B582B00020019042
:101E000032E09DF808100198401C814204D14FF443
:101E10007F001949486002E028201749486001986E
:101E2000401CC0EB00104000283081B21E235A2213
:101E3000A02002F02FFD114A019BD15C104A52F8FC
:101E400033000023062201F01FFE0198401CC0EB66
:101E500000104000283081B201230A4AA0200BF074
:101E600071FD0198401C019001980628C9D32820D3
:101E7000014948600EBD00000C010020FB0000205D
:101E80001C0800208400002010B500242CE0184815
:101E900018494860A100C4EB441201EB820188B2EA
:101EA00042237C224FF4CF7102F0F4FC1248114916
:101EB0004860C4EB44118900042202FB041188B27B
:101EC00002237C224FF4CF7102F0E4FCC4EB4411F6
:101ED0008900042202FB041188B2422302224FF43B
:101EE000CF7102F0D7FC641C052CD0D310BD0000CC
:101EF000303030000C01002068436900F0B593B029
:101F000005460E461746012012900C9000200B90BB
:101F10000A900990089003900290049002900D900E
:101F200009E020200FA99DF8342088549DF8340042
:101F3000401CC0B20D909DF834000728F1DB002052
:101F40008DF843000FB1072400E00624A2E10A2027
:101F500002F028FA0E909DF83800FF2874D0012076
:101F60000C909DF838000A3836286ED2DFE800F071
:101F7000F93E7764F878626E756D631B65766D79EE
:101F80006D6D6D6D6D6D6D6D6D6D6D6D6D6D6D6D81
:101F90006D6D6D6D6D6DF77A8998A7B6C5D4E3FA4E
:101FA0006D6DF5F4F3F20020049012909DF820007E
:101FB000A04218DA9DF82C00A8B99DF8200000284E
:101FC0000CDD2E200FA99DF8202088549DF82000BC
:101FD0000A909DF82000401CC0B208909DF82C008B
:101FE000401CC0B20B90012005903AE10120049002
:101FF000002012909DF82000A04218DA9DF82C00D5
:10200000A8B99DF8200000280CDD2E200FA99DF80E
:10201000202088549DF820000A909DF82000401C44
:10202000C0B208909DF82C00401CC0B20B9001205B
:10203000059016E115E114E113E10620CB49087083
:102040000020129005900CE10CE109E100201290B3
:1020500005901220C549087003E102E101E100E1A9
:10206000FFE0FEE09DF82000A04209DA31200FA930
:102070009DF8202088549DF82000401CC0B2089094
:10208000EFE09DF82000A04209DA32200FA99DF868
:10209000202088549DF82000401CC0B20890E0E049
:1020A0009DF82000A04209DA33200FA99DF82020D6
:1020B00088549DF82000401CC0B20890D1E09DF8E3
:1020C0002000A04209DA34200FA99DF8202088546E
:1020D0009DF82000401CC0B20890C2E09DF820008E
:1020E000A04209DA35200FA99DF8202088549DF8D8
:1020F0002000401CC0B20890B3E09DF82000A04230
:1021000009DA36200FA99DF8202088549DF8200078
:10211000401CC0B20890A4E09DF82000A04209DA5B
:1021200037200FA99DF8202088549DF82000401CDE
:10213000C0B2089095E09DF82000A04209DA38204E
:102140000FA99DF8202088549DF82000401CC0B2A3
:10215000089086E083E081E07FE07DE002E010E02F
:102160001EE03FE09DF82000A04209DA39200FA9C7
:102170009DF8202088549DF82000401CC0B2089093
:102180006FE09DF82000A04209DA30200FA99DF8E9
:10219000202088549DF82000401CC0B2089060E0C8
:1021A0009DF82000A0421CDA9DF82000002818DDD0
:1021B0009DF82C00A8B99DF8200000280CDD2E20E9
:1021C0000FA99DF8202088549DF820000A909DF8C2
:1021D0002000401CC0B208909DF82C00401CC0B2EA
:1021E0000B903EE09DF82000002813DD9DF82000B4
:1021F000401EC0B2089020200FA99DF820208854CE
:102200009DF828009DF82010884224D100200B90D2
:102210000A9020E00FA89DF82010405C28B92D20DE
:102220000FA99DF82020885410E00FA89DF82010D9
:10223000405C2D2805D12B200FA99DF82020885423
:1022400004E02D200FA99DF8202088549DF820003F
:10225000401CC0B2089004E003E002E001E000E0AE
:1022600000BF00BF9DF83000A0B100200C906FF0BF
:102270007F403F4908604FF47F004860B288718812
:102280003088222302F006FB7188308800230FAAD1
:102290000BF058FB9DF8480000287FF458AE9DF8DD
:1022A00020000D9009E030200FA99DF834208854BB
:1022B0009DF83400401CC0B20D909DF83400A0423F
:1022C000F1DB00200D9039E09DF83C00302830DB38
:1022D0009DF83C0039282CDC0FA89DF83410405C98
:1022E000302826DB0FA89DF83410405C392820DC0C
:1022F0009DF828009DF8341088420DDD029800EB0F
:1023000080004000029002990FA89DF83420805C64
:102310003038084402900CE0029800EB8000400046
:10232000029002990FA89DF83420805C3038084450
:1023300002909DF83400401CC0B20D909DF834000E
:10234000A042C1DB9DF8280003909DF8040028708E
:10235000029868600398A8600498E860059828616E
:10236000069868610798A86113B0F0BD22000020AC
:102370000C01002010B50F48446828200D49486022
:1023800002230DA2A02160200BF0E8FA02230CA288
:102390004FF4827160200BF0E1FAFEF77FFD0548F3
:1023A0004460094991F841000849097800F02AF889
:1023B00010BD00000C0100202D2D2D2D2D2D000015
:1023C0002D2D2D2D2D2D2D006807002025000020FE
:1023D00008B50A4837232822C62100904FF4E07040
:1023E00002F020FE0648372328224FF49571009012
:1023F0004FF4E07002F016FE08BD00001CDA010880
:10240000A1E1010870B504460D46012C00DD012450
:10241000062D00DD062528200A494860C4EBC400CB
:1024200000EB4000084901EB800005EB450100EBA3
:10243000810200234FF4B8714FF4DC700BF082FA84
:1024400070BD00000C0100204C21010870B596B051
:1024500004460E4601F020F80122314601A8FFF79C
:102460004DFD01AD9DF804008DF83C0002981090E0
:102470000398119004981290059813900698149060
:10248000079815900FA901A801F0A6FB9DF804007C
:102490008DF820000298099003980A9004980B90F8
:1024A00005980C9006980D9007980E900C9818B906
:1024B00000200A9009900B909DF820002070099848
:1024C00060600A98A0600B98E0600C9820610D98FD
:1024D00060610E98A06116B070BD70B596B00446EC
:1024E0000E4600F0F1FF0022314601A8FFF706FD7D
:1024F00001AD9DF804008DF83C00029810900398FF
:1025000011900498129005981390069814900798CB
:1025100015900FA901A807F0E7FC9DF804008DF8BD
:1025200020000298099003980A9004980B9005984F
:102530000C9006980D9007980E900C9818B90020F2
:102540000A9009900B909DF8200020700998606017
:102550000A98A0600B98E0600C9820610D9860616B
:102560000E98A06116B070BD70B500F091F86FF0D4
:102570007F401C4908601C4848601C4890F8E800EF
:1025800008B11B4E00E01B4E002306F1DC020421C3
:1025900018460BF0D7F96FF07F40124908602820E9
:1025A0004860124890F8E80008B1134D00E0134D60
:1025B00000240CE0C4EBC40000EB400042196001B1
:1025C000283081B2002318460BF0BCF9641C042C9F
:1025D000F0D300230A4A8821A0200BF0B3F9FFF7BB
:1025E000A9FA70BD0C0100200352F3006807002017
:1025F000A71B0108B51A0108F8200108A42001084A
:102600008008002070B500F043F86FF07F40194952
:10261000086019484860194890F8E80008B1184E59
:1026200000E0184E002306F1B002042118460BF01A
:1026300089F96FF07F400F490860282048600F48F3
:1026400090F8E80008B1104D00E0104D00240EE0B5
:1026500004EB440000EBC400421904EB04104000FA
:10266000283081B2002318460BF06CF9641C082C4A
:10267000EED370BD0C0100200352F3006807002068
:10268000A71B0108B51A0108F41F01089C1F0108C7
:1026900010B500F07BFEFFF7F7FB10BD7FB50446D9
:1026A00000208DF80700012C01D1012000E000205E
:1026B0000290029820B14FF47F00FE49486002E08A
:1026C0002820FC494860FC4890F8E80008B1FB4D20
:1026D00000E0FB4D2223A0222821902002F0DAF80E
:1026E000F54890F8E400C0EBC0004219002328210F
:1026F00090200BF027F9022C01D1012000E00020EE
:102700000290029820B14FF47F00EA49486002E04D
:102710002820E84948602223A0224A21902002F084
:10272000B9F8E54890F8E500C0EBC000E54942186B
:1027300000234A2190200BF005F9032C01D1012040
:1027400000E000200290029820B14FF47F00D949A8
:10275000486002E02820D7494860D74890F8E80050
:1027600008B1D64D00E0D64D2223A0226C21902046
:1027700002F090F8D04890F8E600C0EBC000421993
:1027800000236C2190200BF0DDF8042C01D10120F6
:1027900000E000200290029820B14FF47F00C5496C
:1027A000486002E02820C3494860C34890F8E80028
:1027B00008B1C24D00E0C24D2223A0228E219020FC
:1027C00002F068F8BC4890F8E700C0EBC00042197E
:1027D00000238E2190200BF0B5F8052C01D10120AB
:1027E00000E000200290029820B14FF47F00B14930
:1027F000486002E02820AF4948602223A022B0218F
:10280000902002F047F8AC4890F8E800AE4901EBA0
:10281000C0020023B02190200BF094F801A9002001
:1028200003F04CFA6946002003F00EFA062C01D1A1
:10283000012000E000200290029820B14FF47F00B8
:102840009C49486002E028209A49486022232022BF
:10285000D221902002F01EF89DF803209BA19D48F4
:102860000BF0EAF800239B4AD22190200BF06AF883
:10287000282090494860002397A2D221B0200BF075
:1028800061F8072C01D1012000E00020029002989D
:1028900020B14FF47F008749486002E02820854935
:1028A000486022232022D221C02001F0F3FF9DF8AE
:1028B000012086A187480BF0BFF80023854AD2216A
:1028C000C0200BF03FF828207A494860002382A2FC
:1028D000D221E0200BF036F8082C01D1012000E0D5
:1028E00000200290029820B14FF47F0071494860A7
:1028F00002E028206F49486022232022D221F020C4
:1029000001F0C8FF9DF8022070A172480BF094F806
:102910000023704AD221F0200BF014F8092C01D1C9
:10292000012000E000200290029820B14FF47F00C7
:102930006049486002E028205E4948602223202246
:10294000F421902001F0A6FF9DF804205FA16148CA
:102950000BF072F800235F4AF42190200AF0F2FF96
:1029600028205449486000235CA2F421B0200AF0DA
:10297000E9FF0A2C01D1012000E00020029002981A
:1029800020B14FF47F004B49486002E028204949BC
:10299000486022232022F421C02001F07BFF9DF813
:1029A00005204AA14B480BF047F80023494AF4217F
:1029B000C0200AF0C7FF28203E494860002347A2F4
:1029C000F421E0200AF0BEFF0B2C01D1012000E031
:1029D00000200290029820B14FF47F0035494860F2
:1029E00002E028203349486022232022F421F020ED
:1029F00001F050FF9DF8062034A136480BF01CF87A
:102A00000023344AF421F0200AF09CFF0C2C01D161
:102A1000012000E000200290029820B14FF47F00D6
:102A20002449486002E02820224948602223A0224D
:102A30004FF48B71902001F02DFF00231E4AE932E4
:102A40004FF48B7190200AF07DFFFFF71DFA6FF0B5
:102A50007F4018490860224848600C2C7AD2DFE891
:102A600004F00609415A7A99A9AAABACADAEFFF7BA
:102A700061F8BDE0104890F8E80008B10F4D00E0A3
:102A80000F4D0020039010E00399C1EBC1014A19DA
:102A90002023039903EBC11188B200234FF4D871AE
:102AA0000AF050FF0398401C039003980228EBD3D0
:102AB0009EE000000C01002068070020631E010852
:102AC000551E01084C20010884200108253032647D
:102AD00000000000840000202D0000003A000000EB
:102AE000303030000020039011E00399C1EBC101A8
:102AF000404BCA181023039903EBC11188B200237D
:102B00004FF4D8710AF01EFF0398401C03900398FD
:102B10000528EAD36CE0384890F8E80008B1374D52
:102B200000E0374D0020039010E00399C1EBC10194
:102B30004A192023039903EBC11188B200234FF4F3
:102B4000D8710AF0FFFE0398401C039003980228F6
:102B5000EBD34DE04BE0284890F8E80008B1274D52
:102B600000E0274D0020039010E00399C1EBC10164
:102B70004A192023039903EBC11188B200234FF4B3
:102B8000D8710AF0DFFE0398401C039003980228D6
:102B9000EBD32DE000231B4A4FF4D87110200AF02C
:102BA000D1FE0023174A08324FF4D87184200AF06E
:102BB000C9FE1DE000BF00BF00BF00BF00BF002076
:102BC000039010E01049039B01EBC3021946102348
:102BD00003EBC11188B200234FF4D8710AF0B2FEA2
:102BE0000398401C039003980228EBD300E000BF39
:102BF00000BF7FBD4C20010868070020631E01084C
:102C0000551E0108842001089420010810B500F029
:102C1000BDFBFFF739F910BD10B500F0B7FBFFF7AA
:102C200033F910BD70B5FFF7F1FF6FF07F40234916
:102C3000086023484860234890F8E80008B1224E15
:102C400000E0224E00233246194618460AF07AFE6A
:102C50001F481A490860282048601A4890F8E80080
:102C600008B11C4D00E01C4D002421E0032C0ED2C5
:102C700004EB840005EB400204EB0410282303EB73
:102C8000400081B2002318460AF05CFE0FE004EB1E
:102C9000840005EB4002E01E00EB0010282303EB4C
:102CA000400081B200234FF4A8700AF04BFE641C70
:102CB000062CDBD30020FEF743FF70BD0C01002083
:102CC0000352F30068070020A71B0108B51A01088A
:102CD00000FFFF00791A01083D1A010870B5FFF7DF
:102CE0009BFF6FF07F4025490860254848602548D4
:102CF00090F8E80008B1244E00E0244E002306F1CD
:102D00005802042118460AF01DFE21481B4908609C
:102D1000282048601B4890F8E80008B11D4D00E0ED
:102D20001D4D282015494860002420E0092C0DD2B3
:102D300004EB840005EB400204EB04104000283053
:102D400081B2002318460AF0FDFD0FE004EB840079
:102D500005EB4002A4F1090000EB00104000283010
:102D600081B200234FF4A8700AF0ECFD641C122C11
:102D7000DCD30020FEF7E4FE70BD00000C01002053
:102D80000352F30068070020A71B0108B51A0108C9
:102D900000FFFF004D1D0108991C01087CB5044689
:102DA000F74890F8E80008B1F64D00E0F64D012C28
:102DB00001D1012000E000200090009820B14FF4E4
:102DC0007F00F249486002E02820F0494860222351
:102DD000A0222821902001F05DFD6FF07F40EB499B
:102DE0000860E7480078C0EBC000421900232821A2
:102DF00090200AF0A7FD022C01D1012000E0002064
:102E00000090009820B14FF47F00E049486002E054
:102E10002820DE494860DA4A926ED1B2D84A506E14
:102E20000023052200F030FE2223A0224A21902018
:102E300001F030FD0023D64A4A2190200AF082FD9D
:102E4000CF48C06ED34901EB800200234A214FF4E2
:102E500080700AF077FD032C01D1012000E00020F2
:102E60000090009820B14FF47F00C849486002E00C
:102E70002820C6494860C24AD268D1B2C04A906888
:102E80000023052200F000FE2223A0226C219020C6
:102E900001F000FD0023BE4A6C2190200AF052FD93
:102EA000B7480069BB4901EB800200236C214FF455
:102EB00080700AF047FD042C01D1012000E00020C1
:102EC0000090009820B14FF47F00B049486002E0C4
:102ED0002820AE494860AA4890F8E80008B1AE4EF4
:102EE00000E0AE4E2223A02228214FF4F07001F022
:102EF000D1FCA34890F8410038B90023324628217C
:102F00004FF4F0700AF01EFD0EE09D4890F840006E
:102F1000401C00EB400101EBC00082190023282176
:102F20004FF4F0700AF00EFD052C01D1012000E0F5
:102F300000200090009820B14FF47F009349486032
:102F400002E02820914948608D4AD2F8A020D1B2F1
:102F50008B4AD2F89C000023062200F095FD222324
:102F6000A0224A214FF4F07001F094FC0023884A1B
:102F70004A214FF4F0700AF0E5FC002388A24A21B0
:102F80004FF418700AF0DEFC062C01D1012000E09D
:102F900000200090009820B14FF47F007B494860EA
:102FA00002E0282079494860754AD26AD1B2744A51
:102FB000906A0023062200F067FD2223A0226C21E4
:102FC0004FF4F07001F066FC0023714A6C214FF45D
:102FD000F0700AF0B7FC002371A26C214FF4187056
:102FE0000AF0B0FCFEF750FF072C75D2DFE804F0C2
:102FF00004082C507595B9000020FEF7A1FDEFE004
:10300000002062490860674848605D4890F8E80021
:1030100008B15C4D00E05C4D0020019010E001998A
:10302000C1EBC1014A192023019903EBC11188B2F8
:1030300000234FF4D8710AF085FC0198401C0190E0
:1030400001980228EBD3CBE0002050490860554896
:1030500048604B4890F8E80008B1534D00E0534DEC
:103060000020019010E00199C1EBC1014A19202311
:10307000019903EBC11188B200234FF4D8710AF013
:1030800061FC0198401C019001980028EBD0A7E05A
:1030900000203E49086043484860394890F8E800FD
:1030A00008B1414D00E0414D0020019010E0019930
:1030B000C1EBC1014A192023019903EBC11188B268
:1030C00000234FF4D8710AF03DFC0198401C019098
:1030D00001980028EBD083E081E000202B490860B4
:1030E000304848600020019013E0019901EB410352
:1030F00003EBC1012E4BCA181023019903EBC11138
:1031000088B200234FF4D8710AF01CFC0198401CCF
:10311000019001980528E8D362E000201B4908606F
:1031200020484860164890F8E80008B11E4D00E0BD
:103130001E4D0020019010E00199C1EBC1014A1918
:103140002023019903EBC11188B200234FF4D871F9
:103150000AF0F8FB0198401C019001980028EBD080
:103160003EE00020094908600E484860044890F895
:10317000E80008B10C4D00E00C4D002001902AE061
:10318000680700200F1E0108011E01080C01002025
:1031900084000020591F0108011F0108A91E010811
:1031A0005600000030303000A21E01089B1E0108AE
:1031B000651F01080199C1EBC1014A19202301993A
:1031C00003EBC11188B200234FF4D8710AF0BAFBA7
:1031D0000198401C019001980028EBD000E000BF4E
:1031E00000BF7CBD7FB582B00A9E029D002404E032
:1031F00000205B490855601CC4B2092CF8DB40F67E
:10320000AC50854209D9002404E02D2054490855CA
:10321000601CC4B2052CF8DB06E09DF80C100023FE
:103220000422284600F030FC4E484D490A68C0F898
:1032300003200979C1714C4849490A6842610979FA
:1032400001764A4840794A4901EB800146480A889C
:10325000A0F819208978C1760920434948779DF85C
:103260000E0030B1022343A2A02160200AF076FBB9
:1032700005E0022340A2A02160200AF06FFB022398
:10328000374AA02190200AF069FB3C4800780328C7
:1032900009DA3B4837232822C62100904FF4C87032
:1032A00001F0C0FE08E0374837232822C6210090ED
:1032B0004FF4C87001F0B6FE9DF8141000230622EA
:1032C000049800F0E1FB2748C01C25490A68826089
:1032D0008A888281897981732348C01D20490A68C0
:1032E00082618A888283897981775621C01F80F81C
:1032F000261009201C4981F82700084622A10988C8
:10330000A0F82D109DF8160038B1022319A24FF431
:10331000827130200AF022FB06E0022316A24FF44D
:10332000827130200AF01AFB02230D4A4FF4827199
:1033300060200AF013FB9DF8160028B120200949EF
:1033400088720949887704E02D2006498872064969
:103350008877064841790348417206B070BD000085
:1033600084000020E0010020F5010020DC000020A6
:10337000591F0108200000002D000000250000203A
:10338000E3D6010842DC01080D0A000010B505482B
:103390000549486026234FF4A0720021084601F039
:1033A00079FA10BD0352F3000C01002038B5044631
:1033B0001048056828200F494860012C03D14FF4BC
:1033C0007F4008600AE0022C04D14FF47F000949D5
:1033D000086003E04FF47F00064908600648202398
:1033E0001A46042100904FF4DC7001F01BFE0148E6
:1033F000056038BD0C010020380C020810B500F043
:1034000045F86FF07F401C4908601C484860002365
:103410001B4A042118460AF095FA6FF07F401649BE
:1034200008602820486000240EE004EB840101EBD2
:10343000C401144BCA1804EB84014905080C00238D
:1034400028210AF07FFA641C032CEED3002410E03C
:1034500004EB840000EBC4000B4BC218601CC0EBF3
:1034600000104000283081B2002318460AF06AFAA2
:10347000641C062CECD310BD0C0100200352F30099
:10348000231B0108C8190108EF19010810B5FFF73F
:103490007DFFFEF7F9FC10BD10B5FEF7F5FC0748FF
:1034A000074948606FF07F400860002305A24FF491
:1034B000D87130200AF046FA10BD000030303000DC
:1034C0000C0100202056200010B5FEF7DDFC0A4854
:1034D0000A4948606FF07F400860002308A24FF45B
:1034E000D87120200AF02EFA002307A24FF4D871D9
:1034F000A0200AF027FA10BD303030000C01002067
:103500006DA6B8200000000020A6B8200000000032
:1035100000B58BB00AA9002002F0D0FB09A9002059
:1035200002F092FB9DF82A0000909DF829309DF84A
:1035300028200CA101A80AF07FFA28200E49486033
:10354000002301AA04214FF4F8700AF0FBF91322BA
:1035500001A90A48FCF746FE09200849C8740BB0C7
:1035600000BD00002025302E32643A25302E326412
:103570003A25302E326400000C010020F5010020B5
:1035800010B5082000F03CF830B314480BF014FEDE
:103590000821134800F033FAD8B900201149087007
:1035A0001148007830B100200F4908700F200F49F2
:1035B000087005E001200C49087002200B490870D2
:1035C0000920012181400A4A430942F8231000BF23
:1035D00000BF082000F00EF810BD0000A08601001A
:1035E00000100240770000202C0000202200002064
:1035F00080E100E00149086070470000143C014090
:1036000001460020034A12680A400AB1012000E086
:1036100000207047143C0140002123498279002A90
:103620003AD00A46126803689A430B461A600A1D8C
:10363000126803689A430B1D1A60027911440A68E4
:1036400003681A430A60184A0832126803689A43EA
:10365000154B08331A601A1D126803689A43124BFF
:103660000C331A604279102A0ED11A1F12680368AF
:103670001A430D4B08331A601A1D126803681A4367
:10368000094B0C331A600DE00749427911440A686E
:1036900003681A430A6005E0027911440A68036866
:1036A0009A430A6070470000003C014010B5024692
:1036B00000200023102A03D14FF02044636E0FE056
:1036C000B2F5807F02D10A4C236809E0B2F5805F31
:1036D00003D1074C2034236802E0054CD43423681E
:1036E00003EA01048C4201D0002000E0012010BD5B
:1036F000840000A00021D0E900231A4383685B1EE8
:1037000042EA4312C36842EA4321014A116070470A
:10371000500100A070B5002200210023002405689C
:10372000AD00A5F1C045D5F840216FF30E02D0E9F8
:1037300001563543C6683543066935434669354306
:1037400086693543C6693543066A3543466A35435B
:103750002A43056835B90568AD00A5F1C045C5F82F
:10376000402111E03B4D2B686FF30E03D0E9075663
:103770003543466A35432B43364D2B600568AD0013
:10378000A5F1C045C5F84021056875BB314D083528
:10379000066855F8261001F07041856A2D686D1E87
:1037A000866A7668761E45EA0616856AAD686D1EDD
:1037B00046EA0526856AED686D1E46EA0536856A85
:1037C0002D8A6D1E46EA0546856AAD8A6D1E46EA5B
:1037D0000556856A2D7E6D1E46EA056529431D4DF9
:1037E0000835066845F8261032E0FFE7194D083520
:1037F000066855F8261001F07041856A2D686D1E27
:10380000866A7668761E45EA0616856AAD686D1E7C
:1038100046EA0526856A2D8A6D1E46EA0545294336
:103820000C4D08352C6804F07044856AED686D1EF7
:103830002E03856AAD8A6D1E46EA05552C434FF06E
:103840002045C5F84841034D0835066845F826105F
:1038500070BD0000400100A00449096841EA400130
:103860004FF02042C2F8541170470000540100A0EC
:103870001CB5012140F2A71002F07EF80E21264867
:1038800000F0C8F8202000906946244800F04CF869
:103890002021224800F0BCF801208DF8040000200F
:1038A0008DF8060001208DF8070003208DF8050033
:1038B0004020009069461A4800F036F84021184828
:1038C00000F0A6F8102000906946144800F02CF88B
:1038D0001021124800F09EF80820009000208DF87A
:1038E000040069460F4800F01FF800208DF807001B
:1038F0008020009069460A4800F016F801F04DFD5E
:10390000FDF71EFA09F0E4FF01F09CFD01F09BFDBC
:10391000FDF79CF91CBD000000080240001C02409D
:103920000004024000100240F0B50A4600210023C6
:10393000002400BF3DE0012505FA01F3156805EA02
:1039400003049C4234D105684F000326BE40B543B2
:10395000056015794E00B540066835430560157958
:10396000012D02D01579022D16D185684F0003264E
:10397000BE40B543856055794E00B54086683543F5
:103980008560456801268E40B54345604568967957
:103990008E40B6B235434560C5684F000326BE4031
:1039A000B543C560D5794E00B540C6683543C5609E
:1039B000491C1029BFD3F0BDF0B5002300244D07EA
:1039C000ED0E02FA05F3CE1000F1200555F8265051
:1039D0004E07F70E0F26BE40B543CF1000F120066C
:1039E00046F82750CE1000F1200555F8265045EA3C
:1039F0000304CE1000F1200545F82640F0BD024634
:103A0000002013690B400BB1012000E0002070473B
:103A1000418370470183704701464869806880B2DE
:103A2000704708B50146D1F8CC00006800900098B6
:103A3000C0F3414008BD024602F29B30405C704733
:103A4000024602F5547050F8210070470146D1F843
:103A50001003704710B50446204608F063F90020B3
:103A600010BD70B504460D46002104F29B3041554F
:103A7000113000EB451041612946204608F001F85D
:103A800070BD00BFFEE70000F0B504461D46082AE1
:103A900000DD082202B90122072900DD0721914239
:103AA00000DD1146002004E02026274F3E54461C2E
:103AB000F0B20828F8D310460FE00A26B4FBF6F758
:103AC00006FB17463036471EDFF87CC00CF807604F
:103AD0000A26B4FBF6F4461EF0B20028EDDC81B1F4
:103AE0001346084605E05E1E174FBE5DFE545E1E7F
:103AF000F3B2061EA0F10107F8B2F4D12E26124F40
:103B0000FE54A5B900200EE00F4E365C302E07D1D2
:103B10000D4F461CBE5D2E2E02D020263E5400E0E6
:103B200004E0461CF0B2561E8642EDDC00BF09B12F
:103B3000561CF2B2104604E00026034F3E54461CC9
:103B4000F0B20828F8D3F0BD8400002006483421E4
:103B500002E000220270401C0A1EA1F10103D9B24A
:103B6000F7D1024B1A70704768070020210000202F
:103B700010B564200BF020FB10211548FFF74AFF19
:103B800020211448FFF746FF06200DF0FDFC5520CC
:103B90000DF010FD0DF0EEFC04460DF0E5FCAA2C36
:103BA00001D0FA2010BD15200DF0EEFC06200DF01E
:103BB00001FD14200BF0E0FA0DF0DCFC04460DF0E2
:103BC000D3FC512C01D11420ECE7FA20EAE70000E5
:103BD00000000240001C024070B52DED0A8B054626
:103BE0000C46606800EE100AB8EE400ADFED3B0AB2
:103BF00020EE200AB0EE408AA168C1F10700FCF770
:103C000021FC41EC1C0BB0EE4C1AF0EE6C1A9FED4F
:103C1000340B09F049FFB0EE40AAF0EE60AA18EEAE
:103C2000100AFCF735FC41EC1B0B53EC1A2BFCF78C
:103C300089FB41EC190BFCF76FFC08EE100A9FEDB5
:103C40002A0AB4EEC08AF1EE10FA03DD9FED260ACF
:103C5000B0EE408A9FED250AB4EEC08AF1EE10FA6C
:103C60000BDB0320A0609FED220AC8EE000ABCEE29
:103C7000E00A10EE100A606019E09FED180AB4EE39
:103C8000C08AF1EE10FA0BDB0420A060B2EE040A49
:103C9000C8EE000ABCEEE00A10EE100A606006E012
:103CA0000520A060BCEEC80A10EE100A6060BCEEF1
:103CB000C80A10EE100AA061207828706068686059
:103CC000A068A860E068E8602069286160696861B0
:103CD000A069A861BDEC0A8B70BD00000024744986
:103CE0000000000000002440001BB74A8096184BDB
:103CF0000000C8420FB40299032902D1039901B907
:103D000000200299022902D1039901B901200299E8
:103D1000042903D10399012900D102200299032922
:103D200003D10399012900D103200299022903D16B
:103D30000399012900D104200299042903D1039990
:103D4000022900D105200299032903D103990229F0
:103D500000D1062004B070470FB40299032905D1A1
:103D60000199044A914201D9012000E0002004B0E9
:103D700070470000C0D4010000E0401E0028FCD1C4
:103D8000704700001CB54FF40070009001208DF8C2
:103D9000040000208DF8060001208DF807008DF842
:103DA00005006946FE48FFF7BFFD4FF480600090B4
:103DB0006946FB48FFF7B8FD202000906946F948A6
:103DC000FFF7B2FD4FF4006000906946F448FFF73A
:103DD000ABFD022000906946F348FFF7A5FD0820DF
:103DE000009000208DF8040002208DF8070069463D
:103DF000ED48FFF799FD4FF40071E948FFF70AFE1F
:103E00004FF48061E648FFF705FE2021E548FFF703
:103E100001FE4FF40061E248FFF7FCFD0221E24899
:103E2000FFF7F8FD0821E048FFF7E9FD00286ED014
:103E30004FF48060009000208DF8040002208DF87F
:103E400007006946D648FFF76FFD202000906946BD
:103E5000D448FFF769FD4FF4006000906946D048F0
:103E6000FFF762FD022000906946CF48FFF75CFD36
:103E7000FF20FFF781FF0821CB48FFF7C0FD002896
:103E800047D04FF48061C648FFF7B9FD48B14FF401
:103E90008061C348FFF7B3FD00283AD016242046BE
:103EA0001CBD2021BF48FFF7AAFD38B12021BD4825
:103EB000FFF7A5FD60B30C242046F1E74FF4006145
:103EC000B748FFF79CFD40B14FF40061B448FFF7DD
:103ED00096FDE8B111242046E2E70221B248FFF73F
:103EE0008EFD38B10221B048FFF789FD80B117245B
:103EF0002046D5E70821AC48FFF781FD40B10821F5
:103F0000A948FFF77CFD18B10D242046C8E714E24C
:103F1000FFE74FF48060009001208DF8040000203E
:103F20008DF8060001208DF8070000208DF80500AF
:103F300069469B48FFF7F8FC4FF480619848FFF70B
:103F400069FD4FF40070009000208DF804000220FD
:103F50008DF8070069469248FFF7E6FC20200090A4
:103F600069469048FFF7E0FC4FF400600090694616
:103F70008B48FFF7D9FC0220009069468A48FFF77A
:103F8000D3FCFF20FFF7F8FE08218748FFF737FD35
:103F9000002845D04FF400718148FFF730FD40B153
:103FA0004FF400717E48FFF72AFDC0B31424204669
:103FB00076E720217B48FFF722FD38B120217948A0
:103FC000FFF71DFD58B31924204669E74FF400613F
:103FD0007348FFF714FD40B14FF400617048FFF7DC
:103FE0000EFDE0B1302420465AE702216E48FFF76B
:103FF00006FD38B102216C48FFF701FD78B10E24AF
:1040000020464DE708216848FFF7F9FC38B1082140
:104010006548FFF7F4FC10B10A24204640E7FFE7AB
:104020002020009001208DF8040000208DF806006B
:1040300001208DF8070000208DF8050069465948D9
:10404000FFF772FC20215748FFF7E4FC4FF40070A3
:10405000009000208DF8040002208DF807006946CA
:104060004F48FFF761FC4FF48060009069464C4870
:10407000FFF75AFC4FF40060009069464848FFF78C
:1040800053FC0220009069464748FFF74DFCFF2093
:10409000FFF772FE08214448FFF7B1FCC8B34FF4A4
:1040A00000713F48FFF7ABFC40B14FF400713C4852
:1040B000FFF7A5FC68B30B242046F1E64FF48061BE
:1040C0003748FFF79CFC40B14FF480613448FFF75C
:1040D00096FCF0B132242046E2E64FF4006130480D
:1040E000FFF78DFC40B14FF400612D48FFF787FCCE
:1040F00078B135242046D3E602212B48FFF77FFC18
:1041000040B102212848FFF77AFC10B1382420463C
:10411000C6E60CE008212448FFF771FC38B10821FD
:104120002148FFF76CFC10B10F242046B8E64FF48D
:104130000060009001208DF8040000208DF806003A
:1041400001208DF8070000208DF80500694614480D
:10415000FFF7EAFB4FF400611148FFF75BFC4FF4F7
:104160000070009000208DF8040002208DF80700F8
:1041700069460B48FFF7D8FB4FF480600090694612
:104180000748FFF7D1FB2020009069460548FFF75C
:10419000CBFB0220009069460348FFF7C5FB05E012
:1041A000001C02400008024000200240FF20FFF7F0
:1041B000E3FD08216E48FFF722FCB8B34FF400710D
:1041C0006C48FFF71CFC40B14FF400716948FFF7E1
:1041D00016FC58B31024204662E64FF4806165480F
:1041E000FFF70DFC40B14FF480616248FFF707FC18
:1041F000E0B13324204653E620215F48FFF7FFFB60
:1042000038B120215C48FFF7FAFB78B11224204630
:1042100046E602215648FFF7F2FB40B1022154481E
:10422000FFF7EDFB10B13924204639E60CE00821F8
:104230004F48FFF7E4FB38B108214D48FFF7DFFB9B
:1042400010B1362420462BE60220009001208DF884
:10425000040000208DF8060001208DF807000020E2
:104260008DF8050069464248FFF75EFB0221404891
:10427000FFF7D0FB4FF40070009000208DF8040091
:1042800002208DF8070069463A48FFF74DFB4FF4CE
:104290008060009069463748FFF746FB2020009079
:1042A00069463548FFF740FB4FF4006000906946CF
:1042B0003048FFF739FBFF20FFF75EFD08212C484F
:1042C000FFF79DFBC8B34FF400712A48FFF797FB37
:1042D00040B14FF400712748FFF791FB68B31524F4
:1042E0002046DDE54FF480612248FFF788FB40B1AE
:1042F0004FF480611F48FFF782FBF0B13124204664
:10430000CEE520211C48FFF77AFB38B120211A485E
:10431000FFF775FB88B117242046C1E54FF4006113
:104320001448FFF76CFB48B14FF400611148FFF7E8
:1043300066FB10B134242046B2E50CE008210C489D
:10434000FFF75DFB38B108210948FFF758FB10B1B2
:1043500037242046A4E5094801780948007805F08B
:1043600037FF0446FF2C01D0204699E5FF2097E552
:1043700000200240001C0240000802401A000020F9
:104380002200002010B50648407838B100200449CA
:10439000487000F077F80248007810BDFF20FCE775
:1043A0000401002010B504462146002002F0FEFE64
:1043B000FFF7E8FF10BD000010B5FFF7E3FC04466F
:1043C000FF2C1AD12B480078FF280DD02A480078FE
:1043D000032809DD28480078642805DA2548007894
:1043E0002649087001204870FF20224908700020EB
:1043F00021490870214988703AE01E480078A0429F
:1044000031D11D480078652804DA1B480078401C2B
:104410001949087018480078642809D10020184903
:1044200008701648047001201449487088701FE015
:104430001148007864281BDD1048047001200F49E2
:1044400088700F480078401C0D49087008460078B5
:104450000E280DDD002008700848407840B9012082
:104460000649487004E003480470002002490870BF
:1044700010BD0000070100200801002004010020F9
:104480000901002010B5FCF7BBFB4FF47A700AF06D
:1044900093FEFCF7B4FB10BD30B513460022224C4E
:1044A000246844B901EB8104E40104EB440400EB0B
:1044B000400562192AE01C4C2468012C0CD1C0F57F
:1044C0002074641EC1F5F0756D1E05EB850504EBC7
:1044D000C51404EB440219E0134C2468022C09D1E2
:1044E000C0F5F074641E04EB840401EBC41404EB07
:1044F00044020BE00C4C2468032C07D1C0EB0014E1
:104500004FF4F07505EB4414641A621EB2F5612F86
:1045100009D2064D2D68AB5203F47F04240C034DE1
:104520002D681544AC7030BD7000002020010020C3
:10453000F0B58BB0044600250026002704F47F0068
:10454000050C04F47F40060AE7B2FCF75BFD4FF46C
:1045500040300190012002900595049603970F20AA
:1045600006900C4800680790002008904FF4F07007
:1045700009904FF420700A9001A8FCF75BFDFCF74E
:10458000CBFD00BF0220FCF749FD0028FAD00BB09C
:10459000F0BD000020010020F0B505460E4614468F
:1045A00044E020787E2824DC224800F0BBFC22482E
:1045B000006880882844B0F5207F05DD00251E486E
:1045C0000068C088304486B21B480068C088304408
:1045D000B0F5F07F01DD002500262278314628461F
:1045E00000F02CF8144800688088284485B2641CC8
:1045F0001CE005F12000B0F5207F03DD002506F169
:10460000200086B206F12000B0F5F07F01DD002524
:10461000002620460BF0E0FC87B23A463146284699
:1046200000F0BAFC05F1200085B2A41C2078002817
:10463000B7D1F0BD4801002014010020F0B50646B6
:104640000F461446A4F12000C4B20B480068C0888D
:10465000604309490968898800FB01F5E81705EB03
:104660005070C01004490968096801EB40023946DE
:10467000304600F003F8F0BD140100202DE9FC43A2
:1046800004460F469046A146214840680190009894
:104690000090002528E0002621E018F81500B04021
:1046A00000F0800030B11A48394602682046FFF712
:1046B000F3FE05E01648394642682046FFF7ECFE57
:1046C000601C84B2A4EB09001249096889888842F9
:1046D00003D14C46781C87B203E0701C86B2082ECA
:1046E000DBDB00BF681C85B20A4909688888C117EE
:1046F00000EB5171C910074A1268D2885143A94290
:10470000C9DC03490198486000980090BDE8FC832B
:104710000C010020140100202DE9F04303460C4653
:104720001546684200216F00C7F1020200BF574FD3
:104730003F88A3EB000C04EB01084FF4207909FB40
:1047400008CC0CEB4C0CDFF84881D8F8008028F836
:104750000C704E4F3F6807F47F074FEA174C1F1A43
:1047600004EB010809FB087707EB4707BF1CDFF8DC
:104770002081D8F8008008F807C0444F3F8803EB39
:10478000000C04EB010809FB08CC0CEB4C0CDFF827
:104790000081D8F8008028F80C703C4F3F6807F47F
:1047A0007F074FEA174C1F1804EB010809FB087735
:1047B00007EB4707BF1CDFF8D880D8F8008008F85F
:1047C00007C0324F3F8803EB000CA4EB010809FB44
:1047D00008CC0CEB4C0CDFF8B880D8F8008028F837
:1047E0000C702A4F3F6807F47F074FEA174C1F18D9
:1047F000A4EB010809FB087707EB4707BF1CDFF8AC
:104800009080D8F8008008F807C0204F3F88A3EBBD
:10481000000CA4EB010809FB08CC0CEB4C0CDFF8F6
:104820007080D8F8008028F80C70184F3F6807F4A3
:104830007F074FEA174C1F1AA4EB010809FB087702
:1048400007EB4707BF1CDFF84880D8F8008008F85E
:1048500007C016468E420BDC4F1C39464FF0010C48
:104860000CEB47073A44C84202D1864200DC0026DE
:10487000864206DD471C38464FF0010C0CEB47071B
:104880003A4400287FF753AFBDE8F08318010020B9
:10489000200100202DE9F04F8DB006460F4614464A
:1048A0001D464FF0000A00200290019000908346C0
:1048B000814680464648406800F47F00000C029024
:1048C0004348007900904248808800F47F40000A05
:1048D00001904048006878B94FF4207000FB0760F1
:1048E0003D490968032202FB001AC4F520701FFA33
:1048F00080FBA946A04642E036480068012815D151
:10490000C5F5F070C01B00EB8000C00100F5207001
:10491000801B001B30490968032202FB001AC4F502
:1049200020701FFA80FBA946A04628E029480068AD
:10493000022812D1C6F5F070001B4FF4207101FB64
:10494000007025490968032202FB001AC5F5207092
:104950001FFA80FBA146A84611E0C6EB06104001F5
:1049600000F5F070401BC01B1B490968032202FBC5
:10497000001AC5F5F0701FFA80FBA146A846FCF7A7
:1049800041FB4FF4403003900120049001980690C1
:104990000098059002980790FF200890CDF824A079
:1049A000CDF828B0CDF82C90CDF8308003A8FCF7D6
:1049B00041FBFCF7B1FB00BF0220FCF72FFB0028F6
:1049C000FAD00648006800F0C9FA0DB0BDE8F08FD3
:1049D0000C010020700000202001002018010020A0
:1049E0002DE9F04F8BB004460D4616461F464FF09A
:1049F0000008C146C246C3463848006848B905EBBE
:104A00008500C00100EB400004EB440100EB01080D
:104A10002AE03248006801280BD14FF4207000FBD7
:104A200005412F48006800F56120032202FB1108B0
:104A30001AE02A480068022809D1C4F5F070401E27
:104A400000EB800005EBC01000EB40080CE02348B1
:104A50000068032808D14FF4207000FB054020496E
:104A60000968032202FB00181E48006800F47F005A
:104A70004FEA10491B4890F800B0008800F47F40CE
:104A80004FEA102AFCF7BEFA4FF4403001900120A3
:104A90000290CDF810A0CDF80CB0CDF814900F20F6
:104AA0000690CDF81C802FB90020089001200990B5
:104AB0000A9605E040F27F200890099601200A90AE
:104AC00001A8FCF7B7FAFCF727FB00BF0220FCF7B0
:104AD000A5FA0028FAD00BB0BDE8F08F70000020D6
:104AE000200100200C01002030B504460D4603488B
:104AF000294602682046FFF7CFFC30BD5400002055
:104B000070B504460D461646C5F5F07291B2C4F56F
:104B1000207290B23246FFF7FFFD70BD1CB5012137
:104B200040F2FB1000F028FF0420009003208DF8D5
:104B3000050002208DF8040000208DF806008DF895
:104B400007006946A548FEF7EFFE0E220221A348A2
:104B5000FEF732FF082000906946A048FEF7E4FE09
:104B60000E2203219D48FEF727FF4FF4807000902E
:104B700069469A48FEF7D8FE0E2208219748FEF7AC
:104B80001BFF0120009069469548FEF7CDFE0922E3
:104B900000219348FEF710FF4FF400600090694633
:104BA0009048FEF7C1FE0E220B218E48FEF704FF4F
:104BB0004FF48050009069468A48FEF7B5FE0E22F9
:104BC0000C218848FEF7F8FE2020009069468648B0
:104BD000FEF7AAFE0E2205218348FEF7EDFE4020D7
:104BE000009069468048FEF79FFE0E2206217E480F
:104BF000FEF7E2FE4FF40050009069467748FEF75A
:104C000093FE0E220D217548FEF7D6FE4FF480600C
:104C1000009069467548FEF787FE09220A2173480D
:104C2000FEF7CAFE4FF40040009069466B48FEF75D
:104C30007BFE0E220F216948FEF7BEFE0120009088
:104C400069466B48FEF770FE0E2200216848FEF7A9
:104C5000B3FE1020009069466348FEF765FE0E2201
:104C600004216148FEF7A8FE4FF480500090694689
:104C70005E48FEF759FE0E220C215C48FEF79CFEB2
:104C80004020009069465B48FEF74EFE0E2206214A
:104C90005848FEF791FE4FF4006000906946534873
:104CA000FEF742FE0E220B215048FEF785FE102033
:104CB000009069464E48FEF737FE0E2204214C480C
:104CC000FEF77AFE0820009069464648FEF72CFE63
:104CD0000E2203214348FEF76FFE802000906946B4
:104CE0004248FEF721FE0E2207214048FEF764FEEF
:104CF0004FF48060009069463D48FEF715FE0E2295
:104D00000A213B48FEF758FE4FF4007000906946B8
:104D10003748FEF709FE0E2209213548FEF74CFE02
:104D20004FF48060009069463348FEF7FDFD0E2287
:104D30000A213148FEF740FE1020009002208DF835
:104D4000050001208DF8040000208DF806000120E8
:104D50008DF8070069462748FEF7E6FD80200090A1
:104D600069462448FEF7E0FD10212248FEF752FE76
:104D700080212048FEF74EFE4FF400600090022094
:104D80008DF8050001208DF8040000208DF8060044
:104D900001208DF8070069461648FEF7C5FD4FF45F
:104DA0000050009002208DF8050001208DF80400CD
:104DB00000208DF8060001208DF8070069460D4897
:104DC000FEF7B2FD4FF400610A48FEF723FE4FF4F0
:104DD00000510848FEF71CFE1CBD0000001C0240EC
:104DE000000402400000024000100240001802408F
:104DF00000200240000C02400014024000B58FB0B9
:104E00000121880600F0F8FD0121C80500F0B4FD7D
:104E1000FFF784FE01F022FE062207214FF4D27034
:104E200000F042FE4FF4003000F02CFE012000F0B4
:104E300035FE00BF3D2000F0EFFD0028FAD0002035
:104E400000900190029003900C900D900E9009201C
:104E50000490012005908F2006900C20079040F2CE
:104E60000F3008904FF4F670099040F21F300A900E
:104E70004FF403700B90684600F02CF9012000F00D
:104E800017F90FB000BD000000B591B0902001905F
:104E900040F20F3002900D2003904FF4F670049012
:104EA00001200590FF2006900790089009900A9035
:104EB0004FF480600B9007200C9040F283700E90AE
:104EC000C01E0F90801010904FF050400D9001A91F
:104ED000114800F0D0F911480D904FF4C0600B90CC
:104EE00007200C9001A90C48803000F0C4F9012083
:104EF00000F04CFA0121084800F0B2F901210648FF
:104F0000803000F0ADF9012000F040FA044800F0D4
:104F100009F811B000BD00008468014000100ED0F7
:104F2000280100200149086070470000140100209A
:104F300038B94FF05041064A11600021054A11600E
:104F400005E00549024A11600121024A11607047DB
:104F5000200100202401002000100ED0014908602B
:104F6000704700001801002010B50446084800688A
:104F700020B92146074800F071F904E021460548B0
:104F8000803000F06BF9012000F000FA10BD000045
:104F900024010020846801402DE9F04704460E46B4
:104FA0001746A2464FF00008002532E007EB8710B5
:104FB0001A4901EB4000801C10F805804FF00009F1
:104FC00021E008F0800030B11548314602682046E3
:104FD000FFF762FA05E01248314642682046FFF7C3
:104FE0005BFA4FEA48604FEA1068601C84B2A4EB99
:104FF0000A00202803D15446701C86B206E009F14D
:10500000010000F0FF09B9F1080FDADB00BF681CEE
:10501000C5B2802DCADBBDE8F087000078750108B5
:105020000C0100202DE9F04F04460F461546984626
:10503000A3464FF0000900262DE0099810F80690CD
:105040004FF0000A21E009F0800030B117483946DE
:1050500002682046FFF720FA05E014483946426806
:105060002046FFF719FA4FEA49604FEA1069601CC1
:1050700084B2A4EB0B00A84203D15C46781C87B233
:1050800006E00AF1010000F0FF0ABAF1080FDADBCE
:1050900000BF701C86B205FB08F0C11700EB517110
:1050A000B6EBE10FC9DBBDE8F08F00000C0100207A
:1050B00030B10749096841F00101054A116005E076
:1050C0000349096821F00101014A1160704700009D
:1050D00018680140F0B500210022002300240025BB
:1050E00000265B4F3F68DFF86CC107EA0C07DFF86A
:1050F00060C1CCF80070078A390467463F68D0F871
:1051000014C04CEA010C47EA0C07DFF844C1CCF8A4
:1051100000700CF104073F68DFF838C107EA0C079C
:10512000DFF82CC10CF1040CCCF80070078B3A04AA
:1051300067463F68D0F81CC04CEA020C47EA0C07EF
:10514000DFF80CC10CF1040CCCF800700CF1040772
:105150003F68DFF800C107EA0C07DFF8F4C00CF184
:10516000080CCCF80070078C3B0467463F68D0F809
:1051700024C04CEA030C47EA0C07DFF8D4C00CF15A
:10518000080CCCF800700CF104073F68DFF8C4C0CD
:1051900007EA0C07DFF8B8C00CF10C0CCCF8007073
:1051A000078D3C046746D7F800C0C76A27434CEA1E
:1051B000070C274F0C37C7F800C03F1D3F68DFF8CA
:1051C00098C007EA0C07DFF888C00CF1100CCCF887
:1051D0000070D0E9007C47EA0C07D0F808C047EA25
:1051E0000C07D0F80CC047EA0C07DFF864C00CF1DC
:1051F000100CDCF800C047EA0C07DFF854C00CF1D3
:10520000100CCCF80070476B3D02078E3E04104F27
:1052100024373F6807F07F47DFF834C00CF1240CD7
:10522000CCF8007046EA0507D0F838C047EA0C070A
:10523000DFF81CC00CF1240CDCF800C047EA0C07B6
:10524000DFF80CC00CF1240CCCF80070F0BD0000AD
:105250000868014000F800F08F88FE0F4161704738
:1052600021B1026842F00102026003E0026822F00C
:105270000102026070472DE9F0410024002500265C
:10528000002200270023B1F804C04FEA0C44D0F8F4
:1052900004C00CF4704CC0F804C0D1F800C04CEA53
:1052A000040CC0F804C0B1F80CC04FEA0C45D0F8AB
:1052B00008C00CF4704CC0F808C0D1F808C04CEA23
:1052C000050CC0F808C0D0F810C02CF0070CC0F8CE
:1052D00010C0D1F810C0C0F810C0D1F81CC04FEAFF
:1052E0000C26B1F820C04FEA0C4291F824C04FEAD6
:1052F0000C67D0F818C09C46C0F818C0D1F818C088
:105300004CEA060C4CEA020C4CEA070CC0F818C038
:10531000D0F814C02CF0FF0CC0F814C0D1F814C0A1
:10532000C0F814C0D0F81CC040F207782CEA080C72
:10533000C0F81CC0D1E90AC84CEA080CC0F81CC06F
:10534000D0F828C09C46C0F828C0D1F830C0C0F8BA
:1053500028C0B1F838C04FEA0C43D0F82CC00CF08C
:10536000E02CC0F82CC0D1F834C04CEA030CC0F8D3
:105370002CC0D0F830C06FF30A0CC0F830C0D1F8A0
:105380003CC0C0F830C0BDE8F081000001490860B1
:1053900070470000246801407047704770477047AD
:1053A000704700BFFEE7704770B5002100230F2251
:1053B000C4781CB3174C246804F4E064C4F5E064BA
:1053C000C4F30721C1F10404E3B20A4144789C40CC
:1053D000E1B28478144021430C07210E0E4C05786D
:1053E0006155047804F01F050124AC4005786D1167
:1053F000AD0005F1E025C5F8004109E0047804F0AE
:105400001F050124AC40054D0678761145F826406D
:1054100070BD00000CED00E000E400E080E100E081
:1054200002490143024A1160704700000000FA057A
:105430000CED00E010B5024805F0D4FE10BD0000F0
:10544000AC31002070477047014908627047000086
:1054500000000E42C6490978022902DD0021C44A33
:105460001170C3494978032902DD0021C04A5170F7
:10547000BF498978012902DD0021BD4A9170BC49EC
:10548000C96A052902D90322B949CA62B849896A99
:10549000B84A914202D9B84AB5498A62B449096BFF
:1054A000052902D90022B2490A63B14991F8401096
:1054B0000A2903DD0021AE4A82F84010AC4991F878
:1054C00041100A2903DD0021A94A82F84110A849A8
:1054D00091F84210032903DD0021A54A82F8421009
:1054E000A34991F82010012903DD0021A04A82F888
:1054F00020109F49C96C052902D903229C49CA641E
:105500009B49896C9B4A914203D942F6E0629849D3
:105510008A649749096D052902D9002294490A65D0
:105520009349896E052902D9032291498A669049D7
:10553000496E914A914203D942F6E0628C494A662B
:105540008B49C96E052902D900228949CA66884952
:10555000C968052902D903228549CA608449896836
:10556000854A914203D942F6E06281498A608049C6
:105570000969052902D900227D490A617C49D1F8CF
:105580008410052903D903227949C1F88420784978
:10559000D1F88010774A914203D9774A7449C1F80B
:1055A00080207349D1F88810052903D90022704959
:1055B000C1F888206E49D1F8A010052903D903222B
:1055C0006B49C1F8A0206A49D1F89C10694A914200
:1055D00003D9694A6649C1F89C206549D1F8A410ED
:1055E000052903D900226249C1F8A420604991F835
:1055F000E5100A2903DD00225D4981F8E5205C49B8
:1056000091F8E810012903DD0022594981F8E820CA
:10561000574991F8E710012903DD0022544981F828
:10562000E720534991F8E410012903DD0021504A95
:1056300082F8E4104E4991F8E610012903DD0022BA
:105640004B4981F8E62000200AE04949E931095C2C
:10565000802903DD00224649E9310A54411CC8B2C1
:105660001428F2DB00200EE04449095C802908DDA3
:10567000082803DA302241490A5402E000223F4957
:105680000A54411CC8B20A28EEDB00206CE03B49FA
:10569000643901EBC00191ED010A3949D1ED000AED
:1056A000B4EEE00AF1EE10FA0DDC3449643901EB96
:1056B000C00191ED010A3249D1ED010AB4EEE00AD0
:1056C000F1EE10FA07D2B7EE000A2C49643901EB6B
:1056D000C00181ED010A2949643951F83010294A85
:1056E00052F83020914209D82449643951F83010D9
:1056F000244A02EBC0025268914206D2224951F874
:1057000020201E49643941F83020032815DA1B494E
:10571000183901EB800191ED000ADFED1C0AB4EEAF
:10572000E00AF1EE10FA1DDB9FED190A1349183952
:1057300001EB800181ED000A14E0C11E0F4A083A16
:1057400002EB810191ED000ADFED120AB4EEE00AEE
:10575000F1EE10FA06DB9FED0E0AC11E02EB81018D
:1057600081ED000A411CC8B2052890DB704700009B
:1057700068070020804F1200C0D40100800800207C
:10578000402201088C000020BC00002000401C4684
:10579000000000000024F448704770477047000084
:1057A0007CB500206D49087000F0C8F90021042084
:1057B00000F0FAFBFEF75CF8FEF7DAF9FBF7CAF93E
:1057C000002000F007FB43F2F221884202D000F0F3
:1057D00024FC08E00121080700F0FEF80120FFF793
:1057E00033FE00F057FC02F0F1FA0BF05DFD4FF4D0
:1057F0007A7009F0E1FC02F013FCFFF7FFFAFFF703
:1058000043FB0120FFF754FC0020FFF791FB4FF40E
:105810007F00FEF78DFE0120FFF78AFBFF20FFF7D8
:10582000A3FB2820FEF784FE322002F00DFD01F0DC
:1058300083FAFEF78BF900F0B7FEFFF70BFE02F0DC
:10584000EFFB0020464908700025012045490870FB
:105850000320454908700846007800F043FE012007
:105860004249087004F06EFC41490868804770E0C6
:10587000681C85B2701CC6B2142D02DD06203D499D
:10588000087042F2107009F097FC0A20FEF78AFDBA
:105890000446FF2C5DD0A4F10A00372858D2DFE877
:1058A00000F0511F3F285040222C2F57251C293E25
:1058B000574357575757575757575757575757578C
:1058C00057575757575757574F4C4D4E494A4B46C6
:1058D0004748575752535455560004F07DFC37E063
:1058E00004F079FC34E0FFF75BFD31E0FFF757FD92
:1058F0002EE02DE004F072FC2AE004F06EFC27E0BC
:105900002820FEF715FEB420ADF800007820ADF891
:105910000200ADF8040068460BF07AF818E017E0D2
:1059200016E0FFF73BFD13E0FFF736FD10E00FE058
:105930000EE00DE00CE00BE00AE009E008E007E013
:1059400006E005E004E003E002E001E000E000BF63
:1059500000BF0848007802288AD07CBD770000206C
:105960002400002074000020250000207600002084
:10597000640100202200002029B1064A1268024377
:10598000044B1A6004E0034A12688243014B1A6018
:10599000704700003038024029B1064A12680243BD
:1059A000044B1A6004E0034A12688243014B1A60F8
:1059B000704700001038024029B1064A12680243BD
:1059C000044B1A6004E0034A12688243014B1A60D8
:1059D000704700003838024029B1064A1268024375
:1059E000044B1A6004E0034A12688243014B1A60B8
:1059F000704700004038024029B1064A126802434D
:105A0000044B1A6004E0034A12688243014B1A6097
:105A1000704700004438024010B5014600220023C0
:105A200000204A11012A02D10A4C236808E0022A08
:105A300003D1084C7034236802E0064C74342368A8
:105A400001F01F02012494401C400CB1012000E031
:105A5000002010BD003802400021094A1170117069
:105A6000012802D0042808D103E00121044A117062
:105A700004E00521024A117000E000BF00BF70473A
:105A80007038024001460020034A106820F440307C
:105A900008431060704700008C38024001490867D5
:105AA000704700000000474210B5830143EA0163DC
:105AB00043EA0273014C236010BD000088380240A5
:105AC00001490860704700003C0E4742002100F485
:105AD0004072B2F5407F08D1094A116821F4F811EB
