:020000040800F2
:1000000038800020C101000847540008233B000845
:1000100043540008910C00086DCF00080000000058
:1000200000000000000000000000000099710008BE
:100030003D1200080000000039580008F17E000859
:10004000DB010008DB010008DB0100081961000882
:10005000DB010008DB010008DB010008DB01000810
:10006000DB01000821360008DB010008DB01000885
:10007000DB010008DB010008DB010008DB010008F0
:10008000DB010008DB010008DB010008DB010008E0
:10009000DB010008DB010008DB010008DB010008D0
:1000A000DB010008DB010008DB010008DB010008C0
:1000B00055810008DB010008DB010008DB010008B6
:1000C000DB010008DB010008DB010008DB010008A0
:1000D000DB010008DB010008DB01000831A5000896
:1000E000DB010008DB010008DB010008DB01000880
:1000F000DB010008DB010008DB010008DB01000870
:10010000DB010008DB010008DB010008DB0100085F
:10011000DB010008DB01000875810008DB01000835
:10012000DB010008DB010008DB010008DB0100083F
:10013000DB010008DB010008DB010008DB0100082F
:10014000DB010008DB010008DB010008DB0100081F
:10015000DB010008DB010008DB010008DB0100080F
:10016000DB010008DB010008DB010008DB010008FF
:10017000DB010008D5540008DB010008DB010008A2
:10018000DB010008DB010008DB010008DB010008DF
:10019000DB010008DB010008DB010008DB010008CF
:1001A000DB010008DB010008DB010008DFF80CD0F0
:1001B00000F098FB00480047C1100108388000207B
:1001C0000648804706480047FEE7FEE7FEE7FEE7F1
:1001D000FEE7FEE7FEE7FEE7FEE7FEE7ED8000084C
:1001E000AD01000840EA01039B0703D009E008C9FC
:1001F000121F08C0042AFAD203E011F8013B00F8EC
:10020000013B521EF9D27047D2B201E000F8012B37
:10021000491EFBD270470022F6E710B513460A4686
:1002200004461946FFF7F0FF204610BD421E12F8A3
:10023000013F002BFBD111F8013B02F8013B002BE1
:10024000F9D1704710B5002200E0521C835C8C5C31
:10025000A34201D1002BF8D1D8B2E1B2401A10BDAF
:100260002DE9FE4F81EA030404F0004421F000412F
:1002700000944FF0000B23F0004350EA01045ED0DD
:1002800052EA03045BD0C3F30A54C1F30A552C4469
:10029000A4F2F3340194A0FB0254C1F3130141F41E
:1002A0008011C3F3130343F4801301FB024400FBEA
:1002B000034E840A970A44EA815447EA8357A4FB11
:1002C000076802958D0A05FB07854FEA932C04FB0E
:1002D0000C542705029D4FEA065847EA1637B5EB3E
:1002E00008056EEB070C870E920E47EA811742EA6B
:1002F0008312A7FB0201B6EB0B0164EB00042B0D8C
:1003000043EA0C335E1844EB1C50DA465146E7FBD7
:100310000201C5F313044FEA0B3343EA14534FEAC7
:100320000432019C43EA0603A4F10C040294009CED
:10033000CDE900B400F078F903B0BDE8F08F0020FB
:100340000146F9E72DE9F04D81EA030404F0004B82
:1003500021F0004514464FF0000A23F0004150EA16
:10036000050220D054EA01021DD0C5F30A57024607
:10037000C5F31303C1F31300C1F30A5640F480150B
:1003800043F48013A7EB0608101BD64608F2FD388D
:1003900073EB050002D308F1010801E092185B41FC
:1003A000B8F1000F03DA00200146BDE8F08D00200F
:1003B0004FF48011064684460EE0171B73EB0507C9
:1003C00005D3121B63EB050306434CEA010C4908F5
:1003D0004FEA300092185B4150EA0107EDD152EA32
:1003E000030012D082EA040083EA0501084305D025
:1003F000101BAB4106D20122002306E000224FF081
:10040000004302E06FF0010253101AEB06004CEBC0
:10041000085110EB0A0041EB0B01BDE8F04D00F074
:10042000F4B80EB5C10F80EAE0700844CA07002195
:1004300040F233438DE80E000A460B4600F0F4F814
:1004400003B000BD0EB540F2334102910021CDE969
:1004500000110A460B4600F0E7F803B000BDC1F3F7
:100460000A5210B5C1F3130140F2FF3341F4801179
:100470009A4201DA002010BD40F233439A42A2F2C0
:10048000334203DC524200F079F810BD904010BDB9
:1004900000F0004230F000400AD0C10D01F560715B
:1004A000C0F3160042EA0151C208400711437047E9
:1004B000002001467047000030B5041E71F10004B1
:1004C00004DB4FF00044404264EB0101141E73F161
:1004D000000405DB1C464FF00043524263EB04036B
:1004E0008B4208BF824230BD30B5041E71F100045A
:1004F00004DB4FF00044404264EB0101141E73F131
:10050000000405DB1C464FF00043524263EB04033A
:10051000994208BF904230BD01F0004330B421F051
:10052000004150EA010206D00A0DA2F56072C1F343
:100530001301002A02DC30BC00207047440F44EA5B
:10054000C104C100E01830BC00EBC25000F026B876
:1005500030B50B46014600202022012409E021FA93
:1005600002F59D4205D303FA02F5491B04FA02F590
:100570002844151EA2F10102F1DC30BD202A04DB63
:10058000203A21FA02F00021704721FA02F3D0400C
:10059000C2F1200291400843194670470029A8BFC4
:1005A0007047401C490008BF20F00100704710B49C
:1005B000B0FA80FC00FA0CF050EA010404BF10BC51
:1005C000704749B1CCF1200421FA04F411FA0CF17E
:1005D00018BF012121430843A3EB0C01CB1D4FEAB7
:1005E00000614FEA102042BF002010BC704700EBB2
:1005F000C35010440029A4BF10BC7047401C4900E0
:1006000008BF20F0010010BC704710B5141E73F134
:10061000000408DA401C41F1000192185B411A43C2
:1006200001D120F0010010BD2DE9F04D92469B460E
:1006300011B1B1FA81F202E0B0FA80F220329046B4
:1006400000F062F904460F4640EA0A0041EA0B0155
:1006500053465A46084313D0114653EA010019D0B5
:10066000C8F140025046FFF789FF05460E46504646
:100670005946424600F048F9084305D0012004E0FD
:1006800020463946BDE8F08D0020054346EAE07675
:100690002C4337430A986305E40AA0EB08000022C4
:1006A000FD0A44EA47540A3002D500200146E9E732
:1006B000010510196941DDE9084500196941BDE8E6
:1006C000F04DA2E72DE9FE4F804681EA0300C00FFE
:1006D0000C46009021F0004123F00045B8EB0200E9
:1006E000A94105D24046214690461C460B4602468B
:1006F00023F00040104347D0270DC7F30A00C3F38F
:100700000A510290401A019040286BDAC3F313009B
:1007100040F4801B0098924620B10023D2EB030ADC
:1007200063EB0B0B01985946C0F14002504600F0B4
:10073000EBF806460D4650465946019A00F0F3F88C
:1007400010EB08006141002487EA115284EAE77344
:100750001A4340D0009A62B3019A012A4FEA075225
:1007600015DC001B61EB02014FF0004202EA075268
:10077000CDE90042001C41F5801132462B46FFF7BF
:1007800053FF03B0BDE8F08F40462146F9E7001B58
:1007900061EB0201001C41F5801300185B41201839
:1007A000A2F5001747EB030140EAD570B6196D4179
:1007B00011E06D084FEA360645EAC0754FEA075268
:1007C000001B61EB0201001C41F5801149084FEA52
:1007D00030000019514132462B4603B0BDE8F04FBE
:1007E000FFF713BF0098012240000023D0EB020264
:1007F00063EBE073009821464FEAE074B8EB000029
:1008000061EB0401E9E783F000435BE781F000411D
:1008100058E770B521F0004303430CD0C1F30A55EB
:100820000024D5EB040564EB0403D617AD1AB341DD
:1008300002DB0020014670BD201841EB025170BD63
:100840002DE9F04D00231A461B1A8A4103DB0020D4
:100850000146BDE8F08DC1F30A52C1F3130141F422
:1008600080154FF0000BD10702D100186D41521EC8
:100870000027044640F2FF11384601EB620A3E466B
:100880008046024600204FF48011FFF777FEC21920
:100890007141BB1846EB0100B4EB030C75EB000C87
:1008A00004D3E41A65EB000517460E46241908F137
:1008B00001006D4180463428E3DDF91946EB06005E
:1008C000091BA84103D24FF0FF32134601E000227A
:1008D00013461BEB070046EB0A51BDE8F04DFFF74E
:1008E00094BE0000064C074D06E0E06840F00103AE
:1008F00094E8070098471034AC42F6D3FFF75AFC4F
:10090000902F0508B02F0508202A04DB203A00FAB2
:1009100002F1002070479140C2F1200320FA03F356
:10092000194390407047202A06DBCB17203A41FA42
:1009300002F043EAE07306E041FA02F3D040C2F16C
:100940002002914008431946704770B58C1810F882
:10095000015B15F0070301D110F8013B2A1106D104
:1009600010F8012B03E010F8016B01F8016B5B1E1E
:10097000F9D12B0705D40023521E0DD401F8013BF9
:10098000FAE710F8013BCB1A921C03E013F8015B65
:1009900001F8015B521EF9D5A142D8D3002070BDE9
:1009A00021B1826842F00102826003E0826822F095
:1009B00001028260704700000021084A1168084A5D
:1009C0001140D0E900231A4383681A43C3681A43CD
:1009D0001143044AC2F80413704700000423014085
:1009E000E030FCFF0020014021B1826842F48072B7
:1009F000826003E0826822F480728260704721B1D5
:100A0000826842F40072826003E0826822F400721D
:100A10008260704730B50246002000235068104CB9
:100A200020400D790C6844EA05242043506090680A
:100A30000C4C2040D1E903542C438D682C434D7954
:100A400044EA450420439060D06A20F470000C7D95
:100A5000641EE4B2234340EA0350D06230BD00007C
:100A6000FFFEFFFCFDF7FFC0F0B504460D46002079
:100A70000021092D11DDE068A5F10A0606EB460705
:100A8000072606FA07F18843A5F10A0606EB460693
:100A900003FA06F10843E0600CE0206905EB450726
:100AA000072606FA07F1884305EB450603FA06F127
:100AB00008432061072A0FDA606B561E06EB860793
:100AC0001F2606FA07F18843561E06EB860605FA2E
:100AD00006F10843606322E00D2A0FDA206BD61F6F
:100AE00006EB86071F2606FA07F18843D61F06EB9A
:100AF000860605FA06F10843206310E0E06AA2F1D9
:100B00000D0606EB86071F2606FA07F18843A2F1B9
:100B10000D0606EB860605FA06F10843E062F0BD15
:100B2000816841F080418160704700001CB501215F
:100B3000084604F077FF032000908DF804000020A1
:100B40008DF807006946024802F03EFF1CBD000018
:100B50000000024010B54021014802F0A9FF10BD7D
:100B6000000402407047000070B505460C46084876
:100B70000560204600F00EF800BF05480068002818
:100B8000FBD100214FF0804007F0BEFB70BD00009C
:100B9000A80100203EB5044600214FF0804007F038
:100BA000B3FB00220121880707F0DAFB022C02D1F7
:100BB0000B20019004E0012C02D142F6DF6001908D
:100BC0000520ADF800000020ADF80800ADF80200E7
:100BD00069464FF0804007F0D5FC0121880707F0F7
:100BE00090FB0121880707F07DFB01221146900749
:100BF00007F0B6FB0121880707F086FB3EBD000029
:100C00001CB54FF48070009001208DF80400002086
:100C10008DF8060001208DF8070000208DF80500F2
:100C20006946024802F0D0FE1CBD000000000240F0
:100C30007047704710B50446134890F8420020B939
:100C40000021124807F06CFB1DE074B90E4890F8C3
:100C50004200012804D101210C4807F061FB12E099
:100C600000210A4807F05CFB0DE0074890F84200BD
:100C7000022804D10121054807F052FB03E00021BE
:100C8000024807F04DFB10BD68070020000401403A
:100C900000BFFEE710B50121054807F041FB052024
:100CA0000EF01BFC0021024807F03AFB10BD0000CB
:100CB0000004014000B587B00121812004F0B2FE9C
:100CC0000121080304F0EEFE05221146334802F02C
:100CD000C3FE05220621314802F0BEFE052207218F
:100CE0002E4802F0B9FE2020059002208DF8190050
:100CF0008DF8180000208DF81A008DF81B0005A94A
:100D0000264802F061FE4020059005A9234802F024
:100D10005BFE8020059005A9204802F055FE1020BA
:100D2000059001208DF8180000208DF81A0005A903
:100D30001A4802F049FE2020059000208DF8180086
:100D400001208DF81B0005A9154802F03DFE00208A
:100D5000ADF800004FF48270ADF802000020ADF84D
:100D600004000220ADF806000120ADF808004002A2
:100D7000ADF80A003820ADF80C000020ADF80E00E8
:100D80000720ADF810006946064806F087F90121F2
:100D9000044805F061FF07B000BD000000000240FC
:100DA000001C0240003001401CB501214FF4A4702A
:100DB00004F038FE2020009002208DF8050001206C
:100DC0008DF8040000208DF8060001208DF8070042
:100DD00069460C4802F0F8FD4FF4804000906946E7
:100DE000094802F0F1FD00208DF804008DF806009E
:100DF00001208DF80700042000906946034802F0A6
:100E0000E3FD1CBD000C024000180240002002401F
:100E10001CB50121042004F005FE02208DF8050018
:100E200001208DF8040000208DF8060001208DF8C7
:100E30000700802000906946014802F0C5FD1CBDF6
:100E4000000802402DE9F04100240027294890F8CD
:100E50004060002005F09CFB2146002001F014FBBF
:100E600041E0012006F09AF942F210700EF06CFB9E
:100E700010F078FA002006F091F91CB900200CF06F
:100E800001FF02E001200CF0FDFE42F210700EF0B6
:100E90005BFB10F0EBFA184890ED000A174800EBE6
:100EA000840080ED000A022C09DA154890ED000A52
:100EB0001248103000EB840080ED000A2546611CCA
:100EC000C8B205F065FB2146002001F0DDFA032CD5
:100ED00007DB06200B490870064880F8406006F0E2
:100EE000D7FF601CC4B2074800781128B9D0BDE80C
:100EF000F0810000680700205800002068080020EA
:100F00005C000020220000207047000030B587B050
:100F1000044620785549087060784870A078887039
:100F2000E11C684606F0C6FF6D469DF800004F497B
:100F3000087101994D4881600299C160039901616E
:100F40000499416105998161A969C161607A474944
:100F500081F82000607A81F8200004F10A016846D7
:100F600006F0A8FF9DF80000404981F8240001998F
:100F70003E4881620299C162039901630499416309
:100F800005998163A969C163207C384981F84000D3
:100F9000607C81F8420004F11201684606F08AFF85
:100FA0009DF80000314981F8440001992F4881647F
:100FB0000299C164039901650499416505998165A8
:100FC000A969C16504F11801684606F073FF9DF830
:100FD0000000264981F86000019924484166029981
:100FE00081660399C1660499016705994167A969FA
:100FF000816704F11E01684606F05CFF9DF8000061
:101000001A4981F87C0001991848C0F880100299AB
:10101000C0F884100399C0F888100499C0F88C10A7
:101020000599C0F89010A969C0F8941004F1240142
:10103000684606F03FFF9DF800000C4981F89800D3
:1010400001990A48C0F89C100299C0F8A0100399B1
:10105000C0F8A4100499C0F8A8100599C0F8AC1005
:10106000A969C0F8B01007B030BD000068070020C3
:1010700010B50121C80504F0E5FC00214FF4000083
:1010800004F0E0FC10BD000001460020034A526855
:101090000A400AB1012000E00020704700B0024081
:1010A00070B50021002200230024344D2D68344EF9
:1010B0003540324E356035462D68066835432F4E33
:1010C000356035466D6B25F00705756335466D6BEC
:1010D00046683543294E7563456835B9C5682902A8
:1010E000058A2A04057D2B0621E04568012D05D1DE
:1010F000C5682902058A2A04002318E04568022DE4
:1011000005D1C56869010569EA0200230FE0456859
:10111000032D06D1C56869010569AA024569EB037B
:1011200005E0C568290105692A0245692B0341EAE2
:101130000205866835431D43104EB66B35430F4E8E
:10114000B5638569F56335462D6C6FF30D05356420
:1011500035462D6CC6693543084E3564858C2C04A4
:1011600035466D6C05F04045756435466D6C066A14
:1011700026433543014E756470BD000000B0024047
:10118000FCE0FCFF0348006840F0010001490860F2
:101190007047000000B0024021B1026842F0010235
:1011A000026003E0026822F0010202607047000062
:1011B00010B500220268134B1A40CC680B68234319
:1011C0004C6923438C692343CC6923430C6A234332
:1011D0004C6A23438C6A23434C6B23438C6B23431D
:1011E0001A430260426922F00702D1E90B3423431B
:1011F0001A4342610B6943604B6883608B68C3602C
:1012000010BD00003F801CF01CB5094B1B788DF809
:1012100006300091074B9B5C8DF80430064B9B5CBD
:101220008DF80530DDE90034C0E900341CBD000054
:101230001E000020D8250108E3250108704730B5BD
:101240008FB0054602F07AF901222946684600F07F
:1012500095FE6C469DF800008DF8200001980990DD
:1012600002980A9003980B9004980C9005980D90A2
:1012700006980E9008A800F026F8079007980FB07F
:1012800030BD30B58FB0054602F06EF90022294618
:10129000684600F073FE6C469DF800008DF8200053
:1012A0000198099002980A9003980B9004980C906A
:1012B00005980D9006980E9008A800F004F8079085
:1012C00007980FB030BD0146486842F21072904254
:1012D00004D948680A22B0FBF2F0486048687047B9
:1012E00008B50020009031E01B489DF8001050F830
:1012F00031001A499DF8002001EBC201496888427B
:101300000CD815489DF8001050F8310013499DF88D
:10131000002001EBC2014968884212D29DF800000A
:10132000042807DA4FF47A710B489DF8002040F842
:10133000321006E04EF6602107489DF8002040F884
:1013400032109DF80000401CC0B200909DF80000D3
:101350000628C9DB08BD00001C0800208C00002006
:101360007CB50546FC48FD490860012D01D10120EE
:1013700000E000200090009820B14FF47F00F74972
:10138000486002E02820F5494860F54890F8E800F8
:1013900008B1F44C00E0F44C2223A0222821902034
:1013A00003F0C8FAEE480078C0EBC0000219002331
:1013B0002821A0200CF074FC022D01D1012000E0B6
:1013C00000200090009820B14FF47F00E34948606E
:1013D00002E02820E1494860E14890F8E80008B1BF
:1013E000E24C00E0E24C2223A0224A21902003F0AC
:1013F000A1FADB484078C0EBC000021900234A2163
:10140000A0200CF04DFC032D01D1012000E00020B4
:101410000090009820B14FF47F00D049486002E06E
:101420002820CE494860CE4890F8E80008B1D14C59
:1014300000E0D14C2223A0228E21902003F07AFAE2
:10144000C7488078C0EBC000021900238E21A0207D
:101450000CF026FC042D01D1012000E000200090BA
:10146000009820B14FF47F00BC49486002E028207A
:10147000BA494860BA4AD268D1B2B94A90680023E2
:10148000052202F051FB2223A022B021902003F07C
:1014900051FA0023B94AB02190200CF001FCB04869
:1014A0000069B74901EB80020023B0214FF480703E
:1014B0000CF0F6FB052D01D1012000E0002000908A
:1014C000009820B14FF47F00A449486002E0282032
:1014D000A2494860A24890F8E80008B1A54C00E095
:1014E000A54C2223A022F421902003F023FA9C484B
:1014F00090F82000C0EBC00002190023F6219020D4
:101500000CF0CEFB062D01D1012000E00020009060
:10151000009820B14FF47F009049486002E02820F5
:101520008E4948608E4AD26AD1B28D4A906A0023B1
:10153000062202F0F9FA2223A0224FF48B719020A8
:1015400003F0F8F900238D4A4FF48B7190200CF0D2
:10155000A7FB00238BA24FF48B71881F0CF0A0FB1C
:10156000072D01D1012000E000200090009820B15B
:101570004FF47F007949486002E0282077494860AD
:10158000774890F8E80008B17F4E00E07F4E2223B4
:10159000A02228214FF4F07003F0CCF9704890F8A5
:1015A000410038B90023324628214FF4F8700CF07E
:1015B00077FB0EE06A4890F84000401C00EB4001C9
:1015C00001EBC0008219002328214FF4F8700CF0C1
:1015D00067FB082D01D1012000E000200090009859
:1015E00020B14FF47F005D49486002E028205B494C
:1015F00048605B4890F8E80008B1654C00E0654C35
:101600002223A0224A214FF4F07003F093F95448AA
:1016100090F84200C0EBC000021900234A214FF4A9
:10162000F8700CF03DFB092D01D1012000E00020F5
:101630000090009820B14FF47F004849486002E0D4
:10164000282046494860464AD26CD1B2444A906C40
:101650000023052202F068FA2223A0228C214FF4F5
:10166000F07003F067F90023444A8E214FF4F070C4
:101670000CF016FB3A48006D414901EB8002002353
:1016800090214FF414700CF00BFB0A2D01D10120B6
:1016900000E000200090009820B14FF47F002F4917
:1016A000486002E028202D4948602D4A926ED1B250
:1016B0002B4A506E0023052202F036FA2223A02284
:1016C000B0214FF4F07003F035F900232B4AB0211C
:1016D0004FF4F0700CF0E4FA2148C06E284901EB99
:1016E00080020023B0214FF414700CF0D9FA0B2DB6
:1016F00001D1012000E000200090009820B14FF4BB
:101700007F001649486002E0282014494860144AC6
:10171000D2F88420D1B2124AD2F8800000230622E7
:1017200002F002FA2223A022F4214FF4F07003F019
:1017300001F90023114AF4214FF4F0700CF0B0FAD3
:10174000002310A2F4214FF418700CF0A9FA0C2D0C
:1017500022D1012021E0000000FFFF000C01002049
:10176000680700209F21010891210108C921010873
:10177000AD210108F3210108E521010884000020C2
:10178000E9220108560000009122010839220108CF
:10179000162201080122010800200090009820B1C3
:1017A0004FF47F00F049486002E02820EE4948608D
:1017B000EE4AD2F8A020D1B2EC4AD2F89C00002325
:1017C000062202F0B1F92223A0224FF48B714FF4CC
:1017D000F07003F0AFF80023E54A4FF48B714FF43B
:1017E000F0700CF05DFA0023AFF268024FF48B71D9
:1017F0004FF418700CF054FA00F088FBDD48DA4919
:1018000008600D2D72D2DFE805F0070B2D4F7294A2
:10181000B6D8FDFCFBFAF900002000F0C9F9A1E1FF
:101820000020D1494860D14890F8E80008B1D24C76
:1018300000E0D24C0020019010E00199C1EBC10101
:101840000A192023019903EBC11188B200234FF438
:10185000D8710CF025FA0198401C019001980228DB
:10186000EBD37FE10020C0494860C04890F8E80011
:1018700008B1C34C00E0C34C0020019010E0019976
:10188000C1EBC1010A192023019903EBC11188B2F0
:1018900000234FF4D8710CF003FA0198401C01901A
:1018A00001980428EBD35DE10020AF494860AF48C0
:1018B00090F8E80008B1B44C00E0B44C002001906E
:1018C00010E00199C1EBC1010A192023019903EB32
:1018D000C11188B200234FF4D8710CF0E1F90198DE
:1018E000401C019001980228EBD33BE139E1002034
:1018F0009D4948609D4890F8E80008B1A44C00E07C
:10190000A44C0020019010E00199C1EBC1010A191B
:101910002023019903EBC11188B200234FF4D87141
:101920000CF0BEF90198401C019001980028EBD002
:1019300018E100208C4948608C4890F8E80008B114
:10194000914C00E0914C0020019010E00199C1EB16
:10195000C1010A192023019903EBC11188B20023A8
:101960004FF4D8710CF09CF90198401C019001983B
:101970000228EBD3F6E000207B4948607B4890F8D2
:10198000E80008B1824C00E0824C0020019010E099
:101990000199C1EBC1010A192023019903EBC1117F
:1019A00088B200234FF4D8710CF07AF90198401CEA
:1019B000019001980028EBD0D4E000206A494860EB
:1019C0006A4890F8E80008B1734E00E0724E0020BB
:1019D000019012E0019901EB410303EBC1018A1967
:1019E0001023019903EBC11188B200234FF4D87181
:1019F0000CF056F90198401C019004E08FE06CE077
:101A000049E026E003E001980528E3D3AAE000209E
:101A100055494860554890F8E80008B15F4C00E02F
:101A20005F4C0020019010E00199C1EBC1010A193F
:101A30001023019903EBC11188B200234FF4D87130
:101A40000CF02EF90198401C019001980328EBD36B
:101A500088E0002044494860444890F8E80008B114
:101A60004B4C00E04B4C0020019010E00199C1EB81
:101A7000C1010A192023019903EBC11188B2002387
:101A80004FF4D8710CF00CF90198401C01900198AA
:101A90000028EBD066E0002033494860334890F8D6
:101AA000E80008B13A4C00E03A4C0020019010E008
:101AB0000199C1EBC1010A192023019903EBC1115E
:101AC00088B200234FF4D8710CF0EAF80198401C5A
:101AD000019001980028EBD044E0002022494860A2
:101AE000224890F8E80008B1294C00E0294C002079
:101AF000019010E00199C1EBC1010A19202301995D
:101B000003EBC11188B200234FF4D8710CF0C8F870
:101B10000198401C019001980028EBD022E00020A1
:101B200011494860114890F8E80008B1184C00E0ED
:101B3000184C0020019010E00199C1EBC1010A1975
:101B40002023019903EBC11188B200234FF4D8710F
:101B50000CF0A6F80198401C019001980028EBD0E9
:101B600000E000BF00BF7CBD0C0100206807002022
:101B7000840000209FFF54009F210108912101084B
:101B8000C9210108AD210108F3210108E52101085F
:101B9000322201082B220108F52201081622010831
:101BA0000122010810B5002000F002F810BD00006D
:101BB00010B5044600F0AAF9002C7CD16D486E499E
:101BC0000860002048606D4890F8E80000284FD079
:101BD00000236BA24FF4D07120200CF061F8002399
:101BE00069A24FF4E07120200CF05AF8002364A29F
:101BF0004FF4D071A0200CF053F8002364A24FF4EE
:101C0000E071A0200CF04CF8002363A24FF4D071D7
:101C10004FF490700CF044F800235DA24FF4E07193
:101C20004FF490700CF03CF800235DA24FF4D0719B
:101C300008460CF035F800235AA24FF4E0714FF437
:101C4000D0700CF02DF85948007806280FD10023E9
:101C500057A24FF4D0714FF408700CF021F8002314
:101C600055A24FF4E0714FF408700CF019F880E0C1
:101C7000002353A24FF4D07118200CF011F8002368
:101C800051A24FF4E07118200CF00AF800234CA286
:101C90004FF4D07198200CF003F800234CA24FF4BD
:101CA000E07198200BF0FCFF00234BA24FF4D071A1
:101CB0004FF48C7000E02EE00BF0F2FF002344A202
:101CC0004FF4E0714FF48C700BF0EAFF002342A256
:101CD0004FF4D0714FF4CC700BF0E2FF002340A220
:101CE0004FF4E0714FF4CC700BF0DAFF2F4800781E
:101CF00006283ED100233CA24FF4D0714FF4067069
:101D00000BF0CEFF00233AA24FF4E0714FF40670BF
:101D10000BF0C6FF2DE0012C2BD16FF07F40164950
:101D2000086000204860002333A2E72154200BF014
:101D3000B7FF002332A2FB2154200BF0B1FF002398
:101D400031A2E721A4200BF0ABFF002330A2FB213E
:101D5000A4200BF0A5FF00232FA2E7214FF4CA70A7
:101D60000BF09EFF00232EA2FB214FF4CA700BF054
:101D700097FF10BD9FFF54000C0100206807002052
:101D80004D454153000000004449535000000000FD
:101D90005345545550000000205359530000000093
:101DA00053595300494E464F0000000022000020C6
:101DB000434C45415200000056414C55450000003F
:101DC000B2E220C1BF000000CFD420CABE00000094
:101DD000C9E820D6C3000000CFB520CDB300000075
:101DE000D0C520CFA2000000B6CC20C2B7000000B2
:101DF000C7E520C1E3000000CEC4BCFE0000000027
:101E0000B9DCC0ED00000000B1A3B4E600000000A2
:101E1000CAFDBEDD00000000B8FCB6E00000000016
:101E200020322F32000000000FB410B59DF80800DA
:101E300090B19DF80800042807DD9DF810100023DC
:101E40000622039801F070FE06E09DF818100023AA
:101E50000722059801F068FE9DF80800C0EB00100D
:101E6000400000F128010123034A4FF4A0700BF059
:101E700017FF10BC5DF814FB8400002001B582B090
:101E80000020019032E09DF808100198401C81422A
:101E900004D14FF47F001949486002E02820174917
:101EA00048600198401CC0EB00104000283081B20F
:101EB0001E235A22A02002F03DFD114A019BD15C55
:101EC000104A52F833000023062201F02DFE01983B
:101ED000401CC0EB00104000283081B201230A4AA8
:101EE000A0200BF0DDFE0198401C0190019806280F
:101EF000C9D32820014948600EBD00000C01002014
:101F0000FB0000201C0800208400002010B50024E5
:101F10002CE0002017494860A100C4EB441201EBFB
:101F2000820188B242237C224FF4CF7102F002FD7D
:101F3000114810494860C4EB44118900042202FB97
:101F4000041188B202237C224FF4CF7102F0F2FC1C
:101F5000C4EB44118900042202FB041188B242231D
:101F600002224FF4CF7102F0E5FC641C052CD0D3A3
:101F700010BD00000C01002030303000F0B593B0EF
:101F800005460E461746012012900C9000200B903B
:101F90000A900990089003900290049002900D908E
:101FA00009E020200FA99DF8342088549DF83400C2
:101FB000401CC0B20D909DF834000728F1DB0020D2
:101FC0008DF843000FB1072400E00624A4E10A20A5
:101FD00002F038FA0E909DF83800FF286FD0FEF717
:101FE00059FE01200C909DF838000A38362867D237
:101FF000DFE800F0F93E7764F878626E7566631B7F
:10200000677666796666666666666666666666664C
:1020100066666666666666666666F77A8998A7B6D5
:10202000C5D4E3FA6666F5F4F3F20020049012904A
:102030009DF82000A04218DA9DF82C00A8B99DF860
:10204000200000280CDD2E200FA99DF820208854A8
:102050009DF820000A909DF82000401CC0B2089016
:102060009DF82C00401CC0B20B90012005903AE175
:1020700001200490002012909DF82000A04218DA60
:102080009DF82C00A8B99DF8200000280CDD2E201A
:102090000FA99DF8202088549DF820000A909DF8F3
:1020A0002000401CC0B208909DF82C00401CC0B21B
:1020B0000B900120059016E115E114E113E113E105
:1020C00010E10620CA4908700020129005900AE12C
:1020D0000020129005901220C549087003E102E12A
:1020E00001E100E1FFE0FEE09DF82000A04209DAF6
:1020F00031200FA99DF8202088549DF82000401C15
:10210000C0B20890EFE09DF82000A04209DA32202A
:102110000FA99DF8202088549DF82000401CC0B2D3
:102120000890E0E09DF82000A04209DA33200FA9D2
:102130009DF8202088549DF82000401CC0B20890D3
:10214000D1E09DF82000A04209DA34200FA99DF8C3
:10215000202088549DF82000401CC0B20890C2E0A6
:102160009DF82000A04209DA35200FA99DF8202013
:1021700088549DF82000401CC0B20890B3E09DF840
:102180002000A04209DA36200FA99DF820208854AB
:102190009DF82000401CC0B20890A4E09DF82000EB
:1021A000A04209DA37200FA99DF8202088549DF815
:1021B0002000401CC0B2089095E09DF82000A0428D
:1021C00009DA38200FA99DF8202088549DF82000B6
:1021D000401CC0B2089086E083E081E07FE07DE0B3
:1021E00002E010E01EE03FE09DF82000A04209DA86
:1021F00039200FA99DF8202088549DF82000401C0C
:10220000C0B208906FE09DF82000A04209DA3020AB
:102210000FA99DF8202088549DF82000401CC0B2D2
:10222000089060E09DF82000A0421CDA9DF8200094
:10223000002818DD9DF82C00A8B99DF82000002882
:102240000CDD2E200FA99DF8202088549DF8200039
:102250000A909DF82000401CC0B208909DF82C0008
:10226000401CC0B20B903EE09DF82000002813DD1A
:102270009DF82000401EC0B2089020200FA99DF8B4
:10228000202088549DF828009DF82010884224D1F1
:1022900000200B900A9020E00FA89DF82010405CD1
:1022A00028B92D200FA99DF82020885410E00FA8F0
:1022B0009DF82010405C2D2805D12B200FA99DF8FA
:1022C0002020885404E02D200FA99DF82020885458
:1022D0009DF82000401CC0B2089004E003E002E03A
:1022E00001E000E000BF00BF9DF83000A0B1002079
:1022F0000C906FF07F403F4908604FF47F004860CA
:10230000B28871883088222302F014FB71883088EB
:1023100000230FAA0BF0C4FC9DF8480000287FF4AE
:1023200056AE9DF820000D9009E030200FA99DF8D1
:10233000342088549DF83400401CC0B20D909DF8A4
:102340003400A042F1DB00200D9039E09DF83C0004
:10235000302830DB9DF83C0039282CDC0FA89DF894
:102360003410405C302826DB0FA89DF83410405C08
:10237000392820DC9DF828009DF8341088420DDDB6
:10238000029800EB80004000029002990FA89DF88F
:102390003420805C3038084402900CE0029800EB56
:1023A00080004000029002990FA89DF83420805CC4
:1023B0003038084402909DF83400401CC0B20D90A3
:1023C0009DF83400A042C1DB9DF8280003909DF8E1
:1023D00004002870029868600398A8600498E86078
:1023E00005982861069868610798A86113B0F0BD48
:1023F000220000200C01002010B50F48446828205E
:102400000D49486002230DA2A02160200BF054FC6E
:1024100002230CA24FF4827160200BF04DFCFEF7FA
:1024200073FD05484460094991F84100084909785D
:1024300000F02AF810BD00000C0100202D2D2D2DDC
:102440002D2D00002D2D2D2D2D2D2D006807002068
:102450002500002008B50A4837232822C62100900D
:102460004FF4E07002F02EFE0648372328224FF486
:10247000957100904FF4E07002F024FE08BD00005A
:10248000B0DE010835E6010870B504460D46012CA2
:1024900000DD0124062D00DD062528200A494860BC
:1024A000C4EBC40000EB4000084901EB800005EBE1
:1024B000450100EB810200234FF4B8714FF4DC704A
:1024C0000BF0EEFB70BD00000C010020DC240108C5
:1024D00070B596B004460E4601F030F80122314640
:1024E00001A8FFF74BFD01AD9DF804008DF83C00FD
:1024F00002981090039811900498129005981390E8
:1025000006981490079815900FA901A801F0B4FB44
:102510009DF804008DF820000298099003980A9015
:1025200004980B9005980C9006980D9007980E90C3
:102530000C9818B900200A9009900B909DF8200083
:102540002070099860600A98A0600B98E0600C9871
:1025500020610D9860610E98A06116B070BD70B5D5
:1025600096B004460E4600F0FFFF0022314601A857
:10257000FFF704FD01AD9DF804008DF83C000298C2
:102580001090039811900498129005981390069853
:102590001490079815900FA901A807F04DFE9DF81B
:1025A00004008DF820000298099003980A9004987E
:1025B0000B9005980C9006980D9007980E900C982B
:1025C00018B900200A9009900B909DF82000207007
:1025D000099860600A98A0600B98E0600C982061F0
:1025E0000D9860610E98A06116B070BD70B500F0D6
:1025F00093F86FF07F401C4908601C4848601C48F5
:1026000090F8E80008B11B4E00E01B4E002306F1D5
:10261000DC02042118460BF043FB6FF07F401249A7
:10262000086028204860124890F8E80008B1134D6F
:1026300000E0134D00240CE0C4EBC40000EB4000AC
:1026400042196001283081B2002318460BF028FBA4
:10265000641C042CF0D300230A4A8821A0200BF02C
:102660001FFBFFF79FFA70BD0C0100200352F3001F
:1026700068070020371F0108451E0108882401084B
:10268000342401088008002070B500F045F86FF090
:102690007F401949086019484860194890F8E800D7
:1026A00008B1184E00E0184E002306F1B0020421D4
:1026B00018460BF0F5FA15480F49086028204860C5
:1026C0000F4890F8E80008B1114D00E0114D0024CA
:1026D0000EE004EB440000EBC400421904EB0410CC
:1026E0004000283081B2002318460BF0D9FA641C50
:1026F000082CEED370BD00000C0100200352F30043
:1027000068070020371F0108451E0108FFF59800E3
:10271000842301082C23010810B500F089FEFFF77F
:10272000F5FB10BD7FB50446F848F9490860002064
:102730008DF80700012C01D1012000E0002002905B
:10274000029820B14FF47F00F149486002E0282050
:10275000EF494860EF4890F8E80008B1EE4D00E01E
:10276000EE4D2223A0222821902002F0E3F8E94830
:1027700090F8E400C0EBC00042190023282190200B
:102780000BF08EFA022C01D1012000E00020029013
:10279000029820B14FF47F00DD49486002E0282014
:1027A000DB4948602223A0224A21902002F0C2F88F
:1027B000D84890F8E500C0EBC000D9494218002382
:1027C0004A2190200BF06CFA032C01D1012000E08B
:1027D00000200290029820B14FF47F00CC4948605D
:1027E00002E02820CA494860CA4890F8E80008B1C9
:1027F000C94D00E0C94D2223A0226C21902002F097
:1028000099F8C44890F8E600C0EBC00042190023D4
:102810006C2190200BF044FA042C01D1012000E03F
:1028200000200290029820B14FF47F00B849486020
:1028300002E02820B6494860B64890F8E80008B1A0
:10284000B54D00E0B54D2223A0228E21902002F04C
:1028500071F8B04890F8E700C0EBC00042190023BF
:102860008E2190200BF01CFA052C01D1012000E0F4
:1028700000200290029820B14FF47F00A4494860E4
:1028800002E02820A24948602223A022B021902003
:1028900002F050F89F4890F8E800A24901EBC0020E
:1028A0000023B02190200BF0FBF901A9002003F0D8
:1028B0005BFA6946002003F01DFA062C01D10120C5
:1028C00000E000200290029820B14FF47F00904970
:1028D000486002E028208E49486022232022D2212D
:1028E000902002F027F89DF803208FA190480BF06C
:1028F00051FA00238E4AD22190200BF0D1F92820E2
:102900008349486000238BA2D221B0200BF0C8F984
:10291000072C01D1012000E000200290029820B194
:102920004FF47F007A49486002E0282078494860E7
:1029300022232022D221C02001F0FCFF9DF801209B
:1029400079A17B480BF026FA0023794AD221C020D6
:102950000BF0A6F928206E494860002375A2D22109
:10296000E0200BF09DF9082C01D1012000E00020AF
:102970000290029820B14FF47F006549486002E060
:1029800028206349486022232022D221F02001F030
:10299000D1FF9DF8022064A165480BF0FBF90023EC
:1029A000634AD221F0200BF07BF9092C01D10120E0
:1029B00000E000200290029820B14FF47F005449BB
:1029C000486002E028205249486022232022F42156
:1029D000902001F0AFFF9DF8042053A154480BF064
:1029E000D9F90023524AF42190200BF059F92820FC
:1029F00047494860002350A2F421B0200BF050F961
:102A00000A2C01D1012000E000200290029820B1A0
:102A10004FF47F003E49486002E028203C4948606E
:102A200022232022F421C02001F084FF9DF80520FC
:102A30003DA13F480BF0AEF900233D4AF421C020F0
:102A40000BF02EF928203249486000233AA2F421E5
:102A5000E0200BF025F90B2C01D1012000E0002033
:102A60000290029820B14FF47F002949486002E0AB
:102A700028202749486022232022F421F02001F059
:102A800059FF9DF8062028A129480BF083F900235F
:102A9000274AF421F0200BF003F90C2C01D101207E
:102AA00000E000200290029820B14FF47F00184906
:102AB000486002E02820164948602223A0224FF4F3
:102AC0008B71902001F036FF0023124AE9324FF457
:102AD0008B7190200BF0E4F8FFF718FA17480C49B7
:102AE0000860002048600C2C7BD2DFE804F0060967
:102AF000425B7B9AAAABACADAEAFFFF753F8BEE03A
:102B0000044890F8E800D8B1034D1AE000FFFF0038
:102B10000C01002068070020F3210108E5210108CD
:102B2000DC23010814240108253032640000000071
:102B3000840000202D0000003A0000009FFF540098
:102B4000504D0020039010E00399C1EBC1014A19D8
:102B50002023039903EBC11188B200234FF4D871ED
:102B60000BF09EF80398401C039003980228EBD3C7
:102B700085E00020039011E00399C1EBC101424BB5
:102B8000CA181023039903EBC11188B200234FF434
:102B9000D8710BF085F80398401C03900398052822
:102BA000EAD36CE0394890F8E80008B1384D00E00D
:102BB000344D0020039010E00399C1EBC1014A1984
:102BC0002023039903EBC11188B200234FF4D8717D
:102BD0000BF066F80398401C039003980228EBD38F
:102BE0004DE04BE0294890F8E80008B1284D00E09E
:102BF000244D0020039010E00399C1EBC1014A1954
:102C00002023039903EBC11188B200234FF4D8713C
:102C10000BF046F80398401C039003980228EBD36E
:102C20002DE000231B4A4FF4D87110200BF038F828
:102C30000023184A08324FF4D87184200BF030F882
:102C40001DE000BF00BF00BF00BF00BF0020039019
:102C500010E01149039B01EBC3021946102303EB5B
:102C6000C11188B200234FF4D8710BF019F8039802
:102C7000401C039003980228EBD300E000BF00BF84
:102C80007FBD0000E5210108DC2301086807002062
:102C9000F3210108142401082424010810B500F0D0
:102CA000C7FBFFF733F910BD10B500F0C1FBFFF70C
:102CB0002DF910BD70B5FFF7F1FF6FF07F4023498C
:102CC000086023484860234890F8E80008B1224E85
:102CD00000E0224E00233246194618460AF0E0FF73
:102CE0001F481A490860282048601A4890F8E800F0
:102CF00008B11C4D00E01C4D002421E0032C0ED235
:102D000004EB840005EB400204EB0410282303EBE2
:102D1000400081B2002318460AF0C2FF0FE004EB26
:102D2000840005EB4002E01E00EB0010282303EBBB
:102D3000400081B200234FF4A8700AF0B1FF641C78
:102D4000062CDBD30020FEF733FF70BD0C01002002
:102D50000352F30068070020371F0108451E0108D1
:102D6000FFF59800091E0108CD1D010870B5FFF799
:102D70009BFF6FF07F402549086025484860254843
:102D800090F8E80008B1244E00E0244E002306F13C
:102D90005802042118460AF083FF21481B490860A5
:102DA000282048601B4890F8E80008B11D4D00E05D
:102DB0001D4D282015494860002420E0092C0DD223
:102DC00004EB840005EB400204EB041040002830C3
:102DD00081B2002318460AF063FF0FE004EB840081
:102DE00005EB4002A4F1090000EB00104000283080
:102DF00081B200234FF4A8700AF052FF641C122C19
:102E0000DCD30020FEF7D4FE70BD00000C010020D2
:102E10000352F30068070020371F0108451E010810
:102E2000FFF59800DD200108292001087CB5044643
:102E3000FE4890F8E80008B1FD4D00E0FD4D012C82
:102E400001D1012000E000200090009820B14FF453
:102E50007F00F949486002E02820F74948602223B2
:102E6000A0222821902001F065FDF448F249086075
:102E7000EE480078C0EBC0004219002328219020C2
:102E80000AF00EFF022C01D1012000E0002000908A
:102E9000009820B14FF47F00E749486002E0282005
:102EA000E5494860E14A926ED1B2E04A506E002393
:102EB000052200F039FE2223A0224A21902001F0B1
:102EC00039FD0023DE4A4A2190200AF0E9FED74866
:102ED000C06EDC4901EB800200234A214FF4807070
:102EE0000AF0DEFE032C01D1012000E0002000905A
:102EF000009820B14FF47F00CF49486002E02820BD
:102F0000CD494860C94AD268D1B2C84A9068002306
:102F1000052200F009FE2223A0226C21902001F05E
:102F200009FD0023C64A6C2190200AF0B9FEBF4873
:102F30000069C44901EB800200236C214FF48070CA
:102F40000AF0AEFE042C01D1012000E00020009028
:102F5000009820B14FF47F00B749486002E0282074
:102F6000B5494860B14890F8E80008B1B64E00E0B5
:102F7000B64E2223A02228214FF4F07001F0DAFC93
:102F8000AA4890F8410038B90023324628214FF46E
:102F9000F0700AF085FE0EE0A44890F84000401C56
:102FA00000EB400101EBC0008219002328214FF4FF
:102FB000F0700AF075FE052C01D1012000E0002020
:102FC0000090009820B14FF47F009B49486002E0D8
:102FD000282099494860954AD2F8A020D1B2934A56
:102FE000D2F89C000023062200F09EFD2223A0229E
:102FF0004A214FF4F07001F09DFC0023904A4A21D1
:103000004FF4F0700AF04CFE002391A24A214FF4D5
:1030100018700AF045FE062C01D1012000E00020C6
:103020000090009820B14FF47F008349486002E08F
:103030002820814948607D4AD26AD1B27B4A906A91
:103040000023062200F070FD2223A0226C214FF401
:10305000F07001F06FFC0023794A6C214FF4F0709E
:103060000AF01EFE00237AA26C214FF418700AF0B9
:1030700017FEFEF74BFF072C75D2DFE804F00408BB
:103080002C507594B8000020FEF792FDF1E07148D5
:103090006949086000204860644890F8E80008B179
:1030A000634D00E0634D0020019010E00199C1EBF9
:1030B000C1014A192023019903EBC11188B20023F1
:1030C0004FF4D8710AF0ECFD0198401C0190019872
:1030D0000228EBD3CDE05F485749086000204860E4
:1030E000524890F8E80008B15B4D00E05B4D0020CD
:1030F000019010E00199C1EBC1014A192023019907
:1031000003EBC11188B200234FF4D8710AF0C8FD57
:103110000198401C019001980028EBD0A9E04D488F
:103120004549086000204860404890F8E80008B130
:10313000494D00E0494D0020019010E00199C1EB9C
:10314000C1014A192023019903EBC11188B2002360
:103150004FF4D8710AF0A4FD0198401C0190019829
:103160000028EBD085E083E03A483349086000202E
:103170004860019013E0019901EB410303EBC101A9
:10318000374BCA181023019903EBC11188B20023F1
:103190004FF4D8710AF084FD0198401C0190019809
:1031A0000528E8D365E02B482349086000204860E3
:1031B0001E4890F8E80008B1274D00E0274D002098
:1031C000019010E00199C1EBC1014A192023019936
:1031D00003EBC11188B200234FF4D8710AF060FDEF
:1031E0000198401C019001980028EBD041E019485B
:1031F00011490860002048600C4890F8E80008B1C8
:10320000154D00E0154D002001902DE00199C1EB16
:10321000C1014A192023019903EBC11188B200238F
:103220004FF4D8710AF03CFD01981BE068070020BC
:103230009F210108912101080C01002000FFFF00DF
:1032400084000020E92201089122010839220108A6
:10325000560000009FFF5400322201082B22010873
:10326000F5220108401C019001980028CED000E012
:1032700000BF00BF7CBD00007FB582B00A9E029DEA
:1032800028205F4948606FF07F400860002404E018
:1032900000205C490855601CC4B2092CF8DB40F6DC
:1032A000AC50854209D9002404E02D205549085529
:1032B000601CC4B2052CF8DB06E09DF80C1000235E
:1032C0000422284600F030FC4F484E490A68C0F8F6
:1032D00003200979C1714D484A490A684261097958
:1032E00001764B4840794B4901EB800147480A88F9
:1032F000A0F819208978C1760920444948779DF8BB
:103300000E0030B1022344A2A02160200AF0D4FCB8
:1033100005E0022341A2A02160200AF0CDFC022397
:10332000384AA02190200AF0C7FC3D4800780328C5
:1033300009DA3C4837232822C62100904FF4C87090
:1033400001F0C0FE08E0384837232822C62100904B
:103350004FF4C87001F0B6FE9DF814100023062249
:10336000049800F0E1FB2848C01C26490A688260E6
:103370008A888281897981732448C01D21490A681D
:1033800082618A888283897981775621C01F80F87B
:10339000261009201D4981F82700084623A1098825
:1033A000A0F82D109DF8160038B102231AA24FF490
:1033B000827130200AF080FC06E0022317A24FF44D
:1033C000827130200AF078FC02230E4A4FF4827199
:1033D00060200AF071FC9DF8160028B120200A49EF
:1033E00088720A49887704E02D20074988720749C6
:1033F0008877074841790448417206B070BD0000E3
:103400000C01002084000020E0010020F5010020D4
:10341000DC000020E9220108200000002D0000004F
:103420002500002077DB0108D6E001080D0A000026
:1034300010B505480549486026234FF4A0720021C5
:10344000084601F077FA10BD0352F3000C0100208A
:1034500038B504461048056828200F494860012CFB
:1034600003D14FF47F4008600AE0022C04D14FF4EE
:103470007F000949086003E04FF47F0006490860B7
:10348000064820231A46042100904FF4DC7001F016
:1034900019FE0148056038BD0C010020CC1002085F
:1034A00010B500F045F86FF07F401C4908601C48DB
:1034B000486000231B4A042118460AF0F1FB6FF014
:1034C0007F40164908602820486000240EE004EB85
:1034D000840101EBC401144BCA1804EB84014905B3
:1034E000080C002328210AF0DBFB641C032CEED31C
:1034F000002410E004EB840000EBC4000B4BC21866
:10350000601CC0EB00104000283081B20023184638
:103510000AF0C6FB641C062CECD310BD0C01002085
:103520000352F300B31E0108581D01087F1D010856
:1035300010B5FFF77DFFFEF7E9FC10BD10B5FEF7F3
:10354000E5FC00200549486005480860002305A205
:103550004FF4D87130200AF0A3FB10BD0C010020FD
:103560009FFF54002056200010B5FEF7CFFC00202E
:103570000949486009480860002309A24FF4D8713E
:1035800020200AF08DFB002307A24FF4D871A02061
:103590000AF086FB10BD00000C0100209FFF5400C4
:1035A0006DA6B8200000000020A6B8200000000092
:1035B00000B58BB00AA9002002F0D6FB09A90020B3
:1035C00002F098FB9DF82A0000909DF829309DF8A4
:1035D00028200CA101A80AF0DDFB28200E49486034
:1035E000002301AA04214FF4F8700AF059FB1322BA
:1035F00001A90A48FCF7F6FD09200849C8740BB078
:1036000000BD00002025302E32643A25302E326471
:103610003A25302E326400000C010020F501002014
:1036200010B5082000F03CF830B314480BF08CFFC4
:103630000821134800F033FAD8B900201149087066
:103640001148007830B100200F4908700F200F4951
:10365000087005E001200C49087002200B49087031
:103660000920012181400A4A430942F8231000BF82
:1036700000BF082000F00EF810BD0000A086010079
:1036800000100240770000202C00002022000020C3
:1036900080E100E00149086070470000143C0140EF
:1036A00001460020034A12680A400AB1012000E0E6
:1036B00000207047143C0140002123498279002AF0
:1036C0003AD00A46126803689A430B461A600A1DEC
:1036D000126803689A430B1D1A60027911440A6844
:1036E00003681A430A60184A0832126803689A434A
:1036F000154B08331A601A1D126803689A43124B5F
:103700000C331A604279102A0ED11A1F126803680E
:103710001A430D4B08331A601A1D126803681A43C6
:10372000094B0C331A600DE00749427911440A68CD
:1037300003681A430A6005E0027911440A680368C5
:103740009A430A6070470000003C014010B50246F1
:1037500000200023102A03D14FF02044636E0FE0B5
:10376000B2F5807F02D10A4C236809E0B2F5805F90
:1037700003D1074C2034236802E0054CD43423687D
:1037800003EA01048C4201D0002000E0012010BDBA
:10379000840000A00021D0E900231A4383685B1E47
:1037A00042EA4312C36842EA4321014A116070476A
:1037B000500100A070B500220021002300240568FC
:1037C000AD00A5F1C045D5F840216FF30E02D0E958
:1037D00001563543C6683543066935434669354366
:1037E00086693543C6693543066A3543466A3543BB
:1037F0002A43056835B90568AD00A5F1C045C5F88F
:10380000402111E03B4D2B686FF30E03D0E90756C2
:103810003543466A35432B43364D2B600568AD0072
:10382000A5F1C045C5F84021056875BB314D083587
:10383000066855F8261001F07041856A2D686D1EE6
:10384000866A7668761E45EA0616856AAD686D1E3C
:1038500046EA0526856AED686D1E46EA0536856AE4
:103860002D8A6D1E46EA0546856AAD8A6D1E46EABA
:103870000556856A2D7E6D1E46EA056529431D4D58
:103880000835066845F8261032E0FFE7194D08357F
:10389000066855F8261001F07041856A2D686D1E86
:1038A000866A7668761E45EA0616856AAD686D1EDC
:1038B00046EA0526856A2D8A6D1E46EA0545294396
:1038C0000C4D08352C6804F07044856AED686D1E57
:1038D0002E03856AAD8A6D1E46EA05552C434FF0CE
:1038E0002045C5F84841034D0835066845F82610BF
:1038F00070BD0000400100A00449096841EA400190
:103900004FF02042C2F8541170470000540100A04B
:103910001CB5012140F2A71002F084F80E212648C0
:1039200000F0C8F8202000906946244800F04CF8C8
:103930002021224800F0BCF801208DF8040000206E
:103940008DF8060001208DF8070003208DF8050092
:103950004020009069461A4800F036F84021184887
:1039600000F0A6F8102000906946144800F02CF8EA
:103970001021124800F09EF80820009000208DF8D9
:10398000040069460F4800F01FF800208DF807007A
:103990008020009069460A4800F016F801F04DFDBD
:1039A000FDF702FA0AF042F901F09CFD01F09BFDDF
:1039B000FDF780F91CBD000000080240001C024019
:1039C0000004024000100240F0B50A460021002326
:1039D000002400BF3DE0012505FA01F3156805EA62
:1039E00003049C4234D105684F000326BE40B54312
:1039F000056015794E00B5400668354305601579B8
:103A0000012D02D01579022D16D185684F000326AD
:103A1000BE40B543856055794E00B5408668354354
:103A20008560456801268E40B543456045689679B6
:103A30008E40B6B235434560C5684F000326BE4090
:103A4000B543C560D5794E00B540C6683543C560FD
:103A5000491C1029BFD3F0BDF0B5002300244D0749
:103A6000ED0E02FA05F3CE1000F1200555F82650B0
:103A70004E07F70E0F26BE40B543CF1000F12006CB
:103A800046F82750CE1000F1200555F8265045EA9B
:103A90000304CE1000F1200545F82640F0BD024693
:103AA000002013690B400BB1012000E0002070479B
:103AB000418370470183704701464869806880B23E
:103AC000704708B50146D1F8CC0000680090009816
:103AD000C0F3414008BD024602F29B30405C704793
:103AE000024602F5547050F8210070470146D1F8A3
:103AF0001003704710B50446204608F0BBFA0020BA
:103B000010BD70B504460D46002104F29B304155AE
:103B1000113000EB451041612946204608F059F963
:103B200070BD00BFFEE70000F0B504461D46082A40
:103B300000DD082202B90122072900DD0721914298
:103B400000DD1146002004E02026274F3E54461C8D
:103B5000F0B20828F8D310460FE00A26B4FBF6F7B7
:103B600006FB17463036471EDFF87CC00CF80760AE
:103B70000A26B4FBF6F4461EF0B20028EDDC81B153
:103B80001346084605E05E1E174FBE5DFE545E1EDE
:103B9000F3B2061EA0F10107F8B2F4D12E26124F9F
:103BA000FE54A5B900200EE00F4E365C302E07D132
:103BB0000D4F461CBE5D2E2E02D020263E5400E046
:103BC00004E0461CF0B2561E8642EDDC00BF09B18F
:103BD000561CF2B2104604E00026034F3E54461C29
:103BE000F0B20828F8D3F0BD840000200648342144
:103BF00002E000220270401C0A1EA1F10103D9B2AA
:103C0000F7D1024B1A70704768070020210000208E
:103C100010B564200BF098FC10211548FFF74AFFFF
:103C200020211448FFF746FF06200DF075FE5520B1
:103C30000DF088FE0DF066FE04460DF05DFEAA2C28
:103C400001D0FA2010BD15200DF066FE06200DF003
:103C500079FE14200BF03CFC0DF054FE04460DF0F0
:103C60004BFE512C01D11420ECE7FA20EAE70000CA
:103C700000000240001C024070B52DED0A8B054685
:103C80000C46606800EE100AB8EE400ADFED3B0A11
:103C900020EE200AB0EE408AA168C1F10700FCF7CF
:103CA000D1FB41EC1C0BB0EE4C1AF0EE6C1A9FED00
:103CB000340B0AF0A5F8B0EE40AAF0EE60AA18EEB8
:103CC000100AFCF7E5FB41EC1B0B53EC1A2BFCF73D
:103CD00039FB41EC190BFCF71FFC08EE100A9FEDB5
:103CE0002A0AB4EEC08AF1EE10FA03DD9FED260A2F
:103CF000B0EE408A9FED250AB4EEC08AF1EE10FACC
:103D00000BDB0320A0609FED220AC8EE000ABCEE88
:103D1000E00A10EE100A606019E09FED180AB4EE98
:103D2000C08AF1EE10FA0BDB0420A060B2EE040AA8
:103D3000C8EE000ABCEEE00A10EE100A606006E071
:103D40000520A060BCEEC80A10EE100A6060BCEE50
:103D5000C80A10EE100AA0612078287060686860B8
:103D6000A068A860E068E86020692861606968610F
:103D7000A069A861BDEC0A8B70BD000000247449E5
:103D80000000000000002440001BB74A8096184B3A
:103D90000000C8420FB40299032902D1039901B966
:103DA00000200299022902D1039901B90120029948
:103DB000042903D10399012900D102200299032982
:103DC00003D10399012900D103200299022903D1CB
:103DD0000399012900D104200299042903D10399F0
:103DE000022900D105200299032903D10399022950
:103DF00000D1062004B070470FB40299032905D101
:103E00000199044A914201D9012000E0002004B048
:103E100070470000C0D4010000E0401E0028FCD123
:103E2000704700001CB54FF40070009001208DF821
:103E3000040000208DF8060001208DF807008DF8A1
:103E400005006946FE48FFF7BFFD4FF48060009013
:103E50006946FB48FFF7B8FD202000906946F94805
:103E6000FFF7B2FD4FF4006000906946F448FFF799
:103E7000ABFD022000906946F348FFF7A5FD08203E
:103E8000009000208DF8040002208DF8070069469C
:103E9000ED48FFF799FD4FF40071E948FFF70AFE7E
:103EA0004FF48061E648FFF705FE2021E548FFF763
:103EB00001FE4FF40061E248FFF7FCFD0221E248F9
:103EC000FFF7F8FD0821E048FFF7E9FD00286ED074
:103ED0004FF48060009000208DF8040002208DF8DF
:103EE00007006946D648FFF76FFD2020009069461D
:103EF000D448FFF769FD4FF4006000906946D04850
:103F0000FFF762FD022000906946CF48FFF75CFD95
:103F1000FF20FFF781FF0821CB48FFF7C0FD0028F5
:103F200047D04FF48061C648FFF7B9FD48B14FF460
:103F30008061C348FFF7B3FD00283AD0162420461D
:103F40001CBD2021BF48FFF7AAFD38B12021BD4884
:103F5000FFF7A5FD60B30C242046F1E74FF40061A4
:103F6000B748FFF79CFD40B14FF40061B448FFF73C
:103F700096FDE8B111242046E2E70221B248FFF79E
:103F80008EFD38B10221B048FFF789FD80B11724BA
:103F90002046D5E70821AC48FFF781FD40B1082154
:103FA000A948FFF77CFD18B10D242046C8E714E2AC
:103FB000FFE74FF48060009001208DF8040000209E
:103FC0008DF8060001208DF8070000208DF805000F
:103FD00069469B48FFF7F8FC4FF480619848FFF76B
:103FE00069FD4FF40070009000208DF8040002205D
:103FF0008DF8070069469248FFF7E6FC2020009004
:1040000069469048FFF7E0FC4FF400600090694675
:104010008B48FFF7D9FC0220009069468A48FFF7D9
:10402000D3FCFF20FFF7F8FE08218748FFF737FD94
:10403000002845D04FF400718148FFF730FD40B1B2
:104040004FF400717E48FFF72AFDC0B314242046C8
:1040500076E720217B48FFF722FD38B120217948FF
:10406000FFF71DFD58B31924204669E74FF400619E
:104070007348FFF714FD40B14FF400617048FFF73B
:104080000EFDE0B1302420465AE702216E48FFF7CA
:1040900006FD38B102216C48FFF701FD78B10E240E
:1040A00020464DE708216848FFF7F9FC38B10821A0
:1040B0006548FFF7F4FC10B10A24204640E7FFE70B
:1040C0002020009001208DF8040000208DF80600CB
:1040D00001208DF8070000208DF805006946594839
:1040E000FFF772FC20215748FFF7E4FC4FF4007003
:1040F000009000208DF8040002208DF8070069462A
:104100004F48FFF761FC4FF48060009069464C48CF
:10411000FFF75AFC4FF40060009069464848FFF7EB
:1041200053FC0220009069464748FFF74DFCFF20F2
:10413000FFF772FE08214448FFF7B1FCC8B34FF403
:1041400000713F48FFF7ABFC40B14FF400713C48B1
:10415000FFF7A5FC68B30B242046F1E64FF480611D
:104160003748FFF79CFC40B14FF480613448FFF7BB
:1041700096FCF0B132242046E2E64FF4006130486C
:10418000FFF78DFC40B14FF400612D48FFF787FC2D
:1041900078B135242046D3E602212B48FFF77FFC77
:1041A00040B102212848FFF77AFC10B1382420469C
:1041B000C6E60CE008212448FFF771FC38B108215D
:1041C0002148FFF76CFC10B10F242046B8E64FF4ED
:1041D0000060009001208DF8040000208DF806009A
:1041E00001208DF8070000208DF80500694614486D
:1041F000FFF7EAFB4FF400611148FFF75BFC4FF457
:104200000070009000208DF8040002208DF8070057
:1042100069460B48FFF7D8FB4FF480600090694671
:104220000748FFF7D1FB2020009069460548FFF7BB
:10423000CBFB0220009069460348FFF7C5FB05E071
:10424000001C02400008024000200240FF20FFF74F
:10425000E3FD08216E48FFF722FCB8B34FF400716C
:104260006C48FFF71CFC40B14FF400716948FFF740
:1042700016FC58B31024204662E64FF4806165486E
:10428000FFF70DFC40B14FF480616248FFF707FC77
:10429000E0B13324204653E620215F48FFF7FFFBBF
:1042A00038B120215C48FFF7FAFB78B11224204690
:1042B00046E602215648FFF7F2FB40B1022154487E
:1042C000FFF7EDFB10B13924204639E60CE0082158
:1042D0004F48FFF7E4FB38B108214D48FFF7DFFBFB
:1042E00010B1362420462BE60220009001208DF8E4
:1042F000040000208DF8060001208DF80700002042
:104300008DF8050069464248FFF75EFB02214048F0
:10431000FFF7D0FB4FF40070009000208DF80400F0
:1043200002208DF8070069463A48FFF74DFB4FF42D
:104330008060009069463748FFF746FB20200090D8
:1043400069463548FFF740FB4FF40060009069462E
:104350003048FFF739FBFF20FFF75EFD08212C48AE
:10436000FFF79DFBC8B34FF400712A48FFF797FB96
:1043700040B14FF400712748FFF791FB68B3152453
:104380002046DDE54FF480612248FFF788FB40B10D
:104390004FF480611F48FFF782FBF0B131242046C3
:1043A000CEE520211C48FFF77AFB38B120211A48BE
:1043B000FFF775FB88B117242046C1E54FF4006173
:1043C0001448FFF76CFB48B14FF400611148FFF748
:1043D00066FB10B134242046B2E50CE008210C48FD
:1043E000FFF75DFB38B108210948FFF758FB10B112
:1043F00037242046A4E5094801780948007806F0EA
:104400008FF80446FF2C01D0204699E5FF2097E560
:1044100000200240001C0240000802401A00002058
:104420002200002010B50648407838B10020044929
:10443000487000F077F80248007810BDFF20FCE7D4
:104440000401002010B504462146002002F004FFBC
:10445000FFF7E8FF10BD000010B5FFF7E3FC0446CE
:10446000FF2C1AD12B480078FF280DD02A4800785D
:10447000032809DD28480078642805DA25480078F3
:104480002649087001204870FF202249087000204A
:1044900021490870214988703AE01E480078A042FE
:1044A00031D11D480078652804DA1B480078401C8B
:1044B0001949087018480078642809D10020184963
:1044C00008701648047001201449487088701FE075
:1044D0001148007864281BDD1048047001200F4942
:1044E00088700F480078401C0D4908700846007815
:1044F0000E280DDD002008700848407840B90120E2
:104500000649487004E0034804700020024908701E
:1045100010BD000007010020080100200401002058
:104520000901002010B5FCF784FB4FF47A700BF002
:104530000BF8FCF77DFB10BD30B513460022224C72
:10454000246844B901EB8104E40104EB440400EB6A
:10455000400562192AE01C4C2468012C0CD1C0F5DE
:104560002074641EC1F5F0756D1E05EB850504EB26
:10457000C51404EB440219E0134C2468022C09D141
:10458000C0F5F074641E04EB840401EBC41404EB66
:1045900044020BE00C4C2468032C07D1C0EB001440
:1045A0004FF4F07505EB4414641A621EB2F5612FE6
:1045B00009D2064D2D68AB5203F47F04240C034D41
:1045C0002D681544AC7030BD700000202001002023
:1045D000F0B58BB0044600250026002704F47F00C8
:1045E000050C04F47F40060AE7B2FCF741FD4FF4E6
:1045F00040300190012002900595049603970F200A
:1046000006900C4800680790002008904FF4F07066
:1046100009904FF420700A9001A8FCF741FDFCF7C7
:10462000B1FD00BF0220FCF72FFD0028FAD00BB02F
:10463000F0BD000020010020F0B505460E461446EE
:1046400044E020787E2824DC224800F0BBFC22488D
:10465000006880882844B0F5207F05DD00251E48CD
:104660000068C088304486B21B480068C088304467
:10467000B0F5F07F01DD002500262278314628467E
:1046800000F02CF8144800688088284485B2641C27
:104690001CE005F12000B0F5207F03DD002506F1C8
:1046A000200086B206F12000B0F5F07F01DD002584
:1046B000002620460BF058FE87B23A46314628467F
:1046C00000F0BAFC05F1200085B2A41C2078002877
:1046D000B7D1F0BD4801002014010020F0B5064616
:1046E0000F461446A4F12000C4B20B480068C088ED
:1046F000604309490968898800FB01F5E81705EB63
:104700005070C01004490968096801EB400239463D
:10471000304600F003F8F0BD140100202DE9FC4301
:1047200004460F469046A1462148406801900098F3
:104730000090002528E0002621E018F81500B04080
:1047400000F0800030B11A48394602682046FFF771
:10475000F3FE05E01648394642682046FFF7ECFEB6
:10476000601C84B2A4EB0900124909688988884258
:1047700003D14C46781C87B203E0701C86B2082E29
:10478000DBDB00BF681C85B20A4909688888C1174D
:1047900000EB5171C910074A1268D2885143A942EF
:1047A000C9DC03490198486000980090BDE8FC838B
:1047B0000C010020140100202DE9F04303460C46B3
:1047C0001546684200216F00C7F1020200BF574F33
:1047D0003F88A3EB000C04EB01084FF4207909FBA0
:1047E00008CC0CEB4C0CDFF84881D8F8008028F896
:1047F0000C704E4F3F6807F47F074FEA174C1F1AA3
:1048000004EB010809FB087707EB4707BF1CDFF83B
:104810002081D8F8008008F807C0444F3F8803EB98
:10482000000C04EB010809FB08CC0CEB4C0CDFF886
:104830000081D8F8008028F80C703C4F3F6807F4DE
:104840007F074FEA174C1F1804EB010809FB087794
:1048500007EB4707BF1CDFF8D880D8F8008008F8BE
:1048600007C0324F3F8803EB000CA4EB010809FBA3
:1048700008CC0CEB4C0CDFF8B880D8F8008028F896
:104880000C702A4F3F6807F47F074FEA174C1F1838
:10489000A4EB010809FB087707EB4707BF1CDFF80B
:1048A0009080D8F8008008F807C0204F3F88A3EB1D
:1048B000000CA4EB010809FB08CC0CEB4C0CDFF856
:1048C0007080D8F8008028F80C70184F3F6807F403
:1048D0007F074FEA174C1F1AA4EB010809FB087762
:1048E00007EB4707BF1CDFF84880D8F8008008F8BE
:1048F00007C016468E420BDC4F1C39464FF0010CA8
:104900000CEB47073A44C84202D1864200DC00263D
:10491000864206DD471C38464FF0010C0CEB47077A
:104920003A4400287FF753AFBDE8F0831801002018
:10493000200100202DE9F04F8DB006460F461446A9
:104940001D464FF0000A002002900190009083461F
:10495000814680464648406800F47F00000C029083
:104960004348007900904248808800F47F40000A64
:1049700001904048006878B94FF4207000FB076050
:104980003D490968032202FB001AC4F520701FFA92
:1049900080FBA946A04642E036480068012815D1B0
:1049A000C5F5F070C01B00EB8000C00100F5207061
:1049B000801B001B30490968032202FB001AC4F562
:1049C00020701FFA80FBA946A04628E0294800680D
:1049D000022812D1C6F5F070001B4FF4207101FBC4
:1049E000007025490968032202FB001AC5F52070F2
:1049F0001FFA80FBA146A84611E0C6EB0610400155
:104A000000F5F070401BC01B1B490968032202FB24
:104A1000001AC5F5F0701FFA80FBA146A846FCF706
:104A200027FB4FF44030039001200490019806903A
:104A30000098059002980790FF200890CDF824A0D8
:104A4000CDF828B0CDF82C90CDF8308003A8FCF735
:104A500027FBFCF797FB00BF0220FCF715FB0028A3
:104A6000FAD00648006800F0C9FA0DB0BDE8F08F32
:104A70000C010020700000202001002018010020FF
:104A80002DE9F04F8BB004460D4616461F464FF0F9
:104A90000008C146C246C3463848006848B905EB1D
:104AA0008500C00100EB400004EB440100EB01086D
:104AB0002AE03248006801280BD14FF4207000FB37
:104AC00005412F48006800F56120032202FB110810
:104AD0001AE02A480068022809D1C4F5F070401E87
:104AE00000EB800005EBC01000EB40080CE0234811
:104AF0000068032808D14FF4207000FB05402049CE
:104B00000968032202FB00181E48006800F47F00B9
:104B10004FEA10491B4890F800B0008800F47F402D
:104B20004FEA102AFCF7A4FA4FF44030019001201C
:104B30000290CDF810A0CDF80CB0CDF814900F2055
:104B40000690CDF81C802FB9002008900120099014
:104B50000A9605E040F27F200890099601200A900D
:104B600001A8FCF79DFAFCF70DFB00BF0220FCF743
:104B70008BFA0028FAD00BB0BDE8F08F700000204F
:104B8000200100200C01002030B504460D460348EA
:104B9000294602682046FFF7CFFC30BD54000020B4
:104BA00070B504460D461646C5F5F07291B2C4F5CF
:104BB000207290B23246FFF7FFFD70BD1CB5012197
:104BC00040F2FB1000F02EFF0420009003208DF82F
:104BD000050002208DF8040000208DF806008DF8F5
:104BE00007006946A548FEF7EFFE0E220221A34802
:104BF000FEF732FF082000906946A048FEF7E4FE69
:104C00000E2203219D48FEF727FF4FF4807000908D
:104C100069469A48FEF7D8FE0E2208219748FEF70B
:104C20001BFF0120009069469548FEF7CDFE092242
:104C300000219348FEF710FF4FF400600090694692
:104C40009048FEF7C1FE0E220B218E48FEF704FFAE
:104C50004FF48050009069468A48FEF7B5FE0E2258
:104C60000C218848FEF7F8FE20200090694686480F
:104C7000FEF7AAFE0E2205218348FEF7EDFE402036
:104C8000009069468048FEF79FFE0E2206217E486E
:104C9000FEF7E2FE4FF40050009069467748FEF7B9
:104CA00093FE0E220D217548FEF7D6FE4FF480606C
:104CB000009069467548FEF787FE09220A2173486D
:104CC000FEF7CAFE4FF40040009069466B48FEF7BD
:104CD0007BFE0E220F216948FEF7BEFE01200090E8
:104CE00069466B48FEF770FE0E2200216848FEF709
:104CF000B3FE1020009069466348FEF765FE0E2261
:104D000004216148FEF7A8FE4FF4805000906946E8
:104D10005E48FEF759FE0E220C215C48FEF79CFE11
:104D20004020009069465B48FEF74EFE0E220621A9
:104D30005848FEF791FE4FF40060009069465348D2
:104D4000FEF742FE0E220B215048FEF785FE102092
:104D5000009069464E48FEF737FE0E2204214C486B
:104D6000FEF77AFE0820009069464648FEF72CFEC2
:104D70000E2203214348FEF76FFE80200090694613
:104D80004248FEF721FE0E2207214048FEF764FE4E
:104D90004FF48060009069463D48FEF715FE0E22F4
:104DA0000A213B48FEF758FE4FF400700090694618
:104DB0003748FEF709FE0E2209213548FEF74CFE62
:104DC0004FF48060009069463348FEF7FDFD0E22E7
:104DD0000A213148FEF740FE1020009002208DF895
:104DE000050001208DF8040000208DF80600012048
:104DF0008DF8070069462748FEF7E6FD8020009001
:104E000069462448FEF7E0FD10212248FEF752FED5
:104E100080212048FEF74EFE4FF4006000900220F3
:104E20008DF8050001208DF8040000208DF80600A3
:104E300001208DF8070069461648FEF7C5FD4FF4BE
:104E40000050009002208DF8050001208DF804002C
:104E500000208DF8060001208DF8070069460D48F6
:104E6000FEF7B2FD4FF400610A48FEF723FE4FF44F
:104E700000510848FEF71CFE1CBD0000001C02404B
:104E800000040240000002400010024000180240EE
:104E900000200240000C02400014024000B58FB018
:104EA0000121880600F0FEFD0121C80500F0BAFDD1
:104EB000FFF784FE01F028FE062207214FF4D2708E
:104EC00000F048FE4FF4003000F032FE012000F008
:104ED0003BFE00BF3D2000F0F5FD0028FAD0002089
:104EE00000900190029003900C900D900E9009207C
:104EF0000490012005908F2006900C20079040F22E
:104F00000F3008904FF4F670099040F21F300A906D
:104F10004FF403700B90684600F02CF9012000F06C
:104F200017F90FB000BD000000B591B090200190BE
:104F300040F20F3002900D2003904FF4F670049071
:104F400001200590FF2006900790089009900A9094
:104F50004FF480600B9007200C9040F283700E900D
:104F6000C01E0F90801010904FF050400D9001A97E
:104F7000114800F0D0F911480D904FF4C0600B902B
:104F800007200C9001A90C48803000F0C4F90120E2
:104F900000F04CFA0121084800F0B2F9012106485E
:104FA000803000F0ADF9012000F040FA044800F034
:104FB00009F811B000BD00008468014000100ED057
:104FC00028010020014908607047000014010020FA
:104FD00038B94FF05041064A11600021054A11606E
:104FE00005E00549024A11600121024A116070473B
:104FF000200100202401002000100ED0014908608B
:10500000704700001801002010B5044608480068E9
:1050100020B92146074800F071F904E0214605480F
:10502000803000F06BF9012000F000FA10BD0000A4
:1050300024010020846801402DE9F04704460E4613
:105040001746A2464FF00008002532E007EB871014
:105050001A4901EB4000801C10F805804FF0000950
:1050600021E008F0800030B1154831460268204642
:10507000FFF762FA05E01248314642682046FFF722
:105080005BFA4FEA48604FEA1068601C84B2A4EBF8
:105090000A00202803D15446701C86B206E009F1AC
:1050A000010000F0FF09B9F1080FDADB00BF681C4E
:1050B000C5B2802DCADBBDE8F08700000879010881
:1050C0000C0100202DE9F04F04460F461546984686
:1050D000A3464FF0000900262DE0099810F806902D
:1050E0004FF0000A21E009F0800030B1174839463E
:1050F00002682046FFF720FA05E014483946426866
:105100002046FFF719FA4FEA49604FEA1069601C20
:1051100084B2A4EB0B00A84203D15C46781C87B292
:1051200006E00AF1010000F0FF0ABAF1080FDADB2D
:1051300000BF701C86B205FB08F0C11700EB51716F
:10514000B6EBE10FC9DBBDE8F08F00000C010020D9
:1051500030B10749096841F00101054A116005E0D5
:105160000349096821F00101014A116070470000FC
:1051700018680140F0B5002100220023002400251A
:1051800000265B4F3F68DFF86CC107EA0C07DFF8C9
:1051900060C1CCF80070078A390467463F68D0F8D0
:1051A00014C04CEA010C47EA0C07DFF844C1CCF804
:1051B00000700CF104073F68DFF838C107EA0C07FC
:1051C000DFF82CC10CF1040CCCF80070078B3A040A
:1051D00067463F68D0F81CC04CEA020C47EA0C074F
:1051E000DFF80CC10CF1040CCCF800700CF10407D2
:1051F0003F68DFF800C107EA0C07DFF8F4C00CF1E4
:10520000080CCCF80070078C3B0467463F68D0F868
:1052100024C04CEA030C47EA0C07DFF8D4C00CF1B9
:10522000080CCCF800700CF104073F68DFF8C4C02C
:1052300007EA0C07DFF8B8C00CF10C0CCCF80070D2
:10524000078D3C046746D7F800C0C76A27434CEA7D
:10525000070C274F0C37C7F800C03F1D3F68DFF829
:1052600098C007EA0C07DFF888C00CF1100CCCF8E6
:105270000070D0E9007C47EA0C07D0F808C047EA84
:105280000C07D0F80CC047EA0C07DFF864C00CF13B
:10529000100CDCF800C047EA0C07DFF854C00CF132
:1052A000100CCCF80070476B3D02078E3E04104F87
:1052B00024373F6807F07F47DFF834C00CF1240C37
:1052C000CCF8007046EA0507D0F838C047EA0C076A
:1052D000DFF81CC00CF1240CDCF800C047EA0C0716
:1052E000DFF80CC00CF1240CCCF80070F0BD00000D
:1052F0000868014000F800F08F88FE0F4161704798
:1053000021B1026842F00102026003E0026822F06B
:105310000102026070472DE9F041002400250026BB
:10532000002200270023B1F804C04FEA0C44D0F853
:1053300004C00CF4704CC0F804C0D1F800C04CEAB2
:10534000040CC0F804C0B1F80CC04FEA0C45D0F80A
:1053500008C00CF4704CC0F808C0D1F808C04CEA82
:10536000050CC0F808C0D0F810C02CF0070CC0F82D
:1053700010C0D1F810C0C0F810C0D1F81CC04FEA5E
:105380000C26B1F820C04FEA0C4291F824C04FEA35
:105390000C67D0F818C09C46C0F818C0D1F818C0E7
:1053A0004CEA060C4CEA020C4CEA070CC0F818C098
:1053B000D0F814C02CF0FF0CC0F814C0D1F814C001
:1053C000C0F814C0D0F81CC040F207782CEA080CD2
:1053D000C0F81CC0D1E90AC84CEA080CC0F81CC0CF
:1053E000D0F828C09C46C0F828C0D1F830C0C0F81A
:1053F00028C0B1F838C04FEA0C43D0F82CC00CF0EC
:10540000E02CC0F82CC0D1F834C04CEA030CC0F832
:105410002CC0D0F830C06FF30A0CC0F830C0D1F8FF
:105420003CC0C0F830C0BDE8F08100000149086010
:10543000704700002468014070477047704770470C
:10544000704700BFFEE7704770B5002100230F22B0
:10545000C4781CB3174C246804F4E064C4F5E06419
:10546000C4F30721C1F10404E3B20A4144789C402B
:10547000E1B28478144021430C07210E0E4C0578CC
:105480006155047804F01F050124AC4005786D11C6
:10549000AD0005F1E025C5F8004109E0047804F00D
:1054A0001F050124AC40054D0678761145F82640CD
:1054B00070BD00000CED00E000E400E080E100E0E1
:1054C00002490143024A1160704700000000FA05DA
:1054D0000CED00E010B5024806F02CF810BD0000FD
:1054E000AC310020704770470149086270470000E6
:1054F00000000E42C6490978022902DD0021C44A93
:105500001170C3494978032902DD0021C04A517056
:10551000BF498978012902DD0021BD4A9170BC494B
:10552000C96A052902D90322B949CA62B849896AF8
:10553000B84A914202D9B84AB5498A62B449096B5E
:10554000052902D90022B2490A63B14991F84010F5
:105550000A2903DD0021AE4A82F84010AC4991F8D7
:1055600041100A2903DD0021A94A82F84110A84907
:1055700091F84210032903DD0021A54A82F8421068
:10558000A34991F82010012903DD0021A04A82F8E7
:1055900020109F49C96C052902D903229C49CA647D
:1055A0009B49896C9B4A914203D942F6E062984933
:1055B0008A649749096D052902D9002294490A6530
:1055C0009349896E052902D9032291498A66904937
:1055D000496E914A914203D942F6E0628C494A668B
:1055E0008B49C96E052902D900228949CA668849B2
:1055F000C968052902D903228549CA608449896896
:10560000854A914203D942F6E06281498A60804925
:105610000969052902D900227D490A617C49D1F82E
:105620008410052903D903227949C1F884207849D7
:10563000D1F88010774A914203D9774A7449C1F86A
:1056400080207349D1F88810052903D900227049B8
:10565000C1F888206E49D1F8A010052903D903228A
:105660006B49C1F8A0206A49D1F89C10694A91425F
:1056700003D9694A6649C1F89C206549D1F8A4104C
:10568000052903D900226249C1F8A420604991F894
:10569000E5100A2903DD00225D4981F8E5205C4917
:1056A00091F8E810012903DD0022594981F8E8202A
:1056B000574991F8E710012903DD0022544981F888
:1056C000E720534991F8E410012903DD0021504AF5
:1056D00082F8E4104E4991F8E610012903DD00221A
:1056E0004B4981F8E62000200AE04949E931095C8C
:1056F000802903DD00224649E9310A54411CC8B221
:105700001428F2DB00200EE04449095C802908DD02
:10571000082803DA302241490A5402E000223F49B6
:105720000A54411CC8B20A28EEDB00206CE03B4959
:10573000643901EBC00191ED010A3949D1ED000A4C
:10574000B4EEE00AF1EE10FA0DDC3449643901EBF5
:10575000C00191ED010A3249D1ED010AB4EEE00A2F
:10576000F1EE10FA07D2B7EE000A2C49643901EBCA
:10577000C00181ED010A2949643951F83010294AE4
:1057800052F83020914209D82449643951F8301038
:10579000244A02EBC0025268914206D2224951F8D3
:1057A00020201E49643941F83020032815DA1B49AE
:1057B000183901EB800191ED000ADFED1C0AB4EE0F
:1057C000E00AF1EE10FA1DDB9FED190A13491839B2
:1057D00001EB800181ED000A14E0C11E0F4A083A76
:1057E00002EB810191ED000ADFED120AB4EEE00A4E
:1057F000F1EE10FA06DB9FED0E0AC11E02EB8101ED
:1058000081ED000A411CC8B2052890DB70470000FA
:1058100068070020804F1200C0D4010080080020DB
:10582000D02501088C000020BC00002000401C4650
:10583000000000000024F4487047704770470000E3
:105840007CB500206F49087000F0CEF900210420DB
:1058500000F000FCFEF75CF8FEF7DAF9FBF77AF9E6
:10586000002000F00DFB43F2F221884202D000F04C
:105870002AFC08E00121080700F004F90120FFF7E5
:1058800033FE00F05DFC02F037FB0BF0D5FE4FF469
:105890007A7009F059FE02F061FCFBF7B1F9FFF7ED
:1058A000FDFAFFF741FB0120FFF752FC0020FFF754
:1058B0008FFB4FF47F00FEF78BFE0120FFF788FB84
:1058C000FF20FFF7A1FB2820FEF782FE322002F026
:1058D00009FE01F087FAFEF789F900F0BBFEFFF739
:1058E00009FE02F03BFC002047490870002501201A
:1058F00046490870464890F84000464908700846F6
:10590000007800F045FE01204349087004F0C2FD14
:1059100042490868804770E0681C85B2701CC6B2B6
:10592000142D02DD06203E49087042F2107009F085
:105930000BFE0A20FEF786FD0446FF2C5DD0A4F185
:105940000A00372858D2DFE800F0511F3F285040A6
:10595000222C2F57251C293E574357575757575727
:1059600057575757575757575757575757575757C7
:105970004F4C4D4E494A4B46474857575253545542
:10598000560004F0D1FD37E004F0CDFD34E0FFF720
:1059900057FD31E0FFF753FD2EE02DE004F0C6FD8A
:1059A0002AE004F0C2FD27E02820FEF711FEB42013
:1059B000ADF800007820ADF80200ADF804006846AC
:1059C0000BF0EEF918E017E016E0FFF737FD13E0F3
:1059D000FFF732FD10E00FE00EE00DE00CE00BE011
:1059E0000AE009E008E007E006E005E004E003E083
:1059F00002E001E000E000BF00BF09480078022893
:105A00008AD07CBD77000020240000207400002094
:105A10006807002025000020760000206401002097
:105A20002200002029B1064A12680243044B1A6082
:105A300004E0034A12688243014B1A607047000079
:105A40003038024029B1064A12680243044B1A60FA
:105A500004E0034A12688243014B1A607047000059
:105A60001038024029B1064A12680243044B1A60FA
:105A700004E0034A12688243014B1A607047000039
:105A80003838024029B1064A12680243044B1A60B2
:105A900004E0034A12688243014B1A607047000019
:105AA0004038024029B1064A12680243044B1A608A
:105AB00004E0034A12688243014B1A6070470000F9
:105AC0004438024010B501460022002300204A114C
:105AD000012A02D10A4C236808E0022A03D1084CAB
